{
  "contractName": "SimpleStorage",
  "abi": [
    {
      "inputs": [],
      "name": "read",
      "outputs": [
        {
          "internalType": "uint256",
          "name": "",
          "type": "uint256"
        }
      ],
      "stateMutability": "view",
      "type": "function",
      "constant": true
    },
    {
      "inputs": [
        {
          "internalType": "uint256",
          "name": "newValue",
          "type": "uint256"
        }
      ],
      "name": "write",
      "outputs": [],
      "stateMutability": "nonpayable",
      "type": "function"
    }
  ],
  "bytecode": "0x608060405234801561001057600080fd5b506101c9806100206000396000f3fe608060405234801561001057600080fd5b50600436106100365760003560e01c80632f048afa1461003b57806357de26a414610057575b600080fd5b6100556004803603810190610050919061013c565b610075565b005b61005f6100bb565b60405161006c9190610178565b60405180910390f35b806000803373ffffffffffffffffffffffffffffffffffffffff1673ffffffffffffffffffffffffffffffffffffffff1681526020019081526020016000208190555050565b60008060003373ffffffffffffffffffffffffffffffffffffffff1673ffffffffffffffffffffffffffffffffffffffff16815260200190815260200160002054905090565b600080fd5b6000819050919050565b61011981610106565b811461012457600080fd5b50565b60008135905061013681610110565b92915050565b60006020828403121561015257610151610101565b5b600061016084828501610127565b91505092915050565b61017281610106565b82525050565b600060208201905061018d6000830184610169565b9291505056fea2646970667358221220de339315af58d9c02cf2a2b5f3b7610c9794af7d43ea1d54859a0d95b7739ad564736f6c63430008120033",
  "immutableReferences": {},
  "source": "// SPDX-License-Identifier: MIT\npragma solidity >=0.4.22 <0.9.0;\n\ncontract SimpleStorage {\n  mapping (address => uint) value;\n\n  function read() public view returns (uint256) {\n    return value[msg.sender];\n  }\n\n  function write(uint256 newValue) public {\n    value[msg.sender] = newValue;\n  }\n}\n",
  "sourcePath": "/home/ethdev/Desktop/CryptoZombiesReact/truffle/contracts/SimpleStorage.sol",
  "compiler": {
    "name": "solc",
    "version": "0.8.18+commit.87f61d96.Emscripten.clang"
  },
  "schemaVersion": "3.4.15",
  "updatedAt": "2024-01-23T19:00:20.116Z",
  "networkType": "ethereum",
  "devdoc": {
    "kind": "dev",
    "methods": {},
    "version": 1
  },
  "userdoc": {
    "kind": "user",
    "methods": {},
    "version": 1
  }
}