{
  "contractName": "ZombieFactory",
  "abi": [
    {
      "anonymous": false,
      "inputs": [
        {
          "indexed": false,
          "internalType": "uint256",
          "name": "zombieId",
          "type": "uint256"
        },
        {
          "indexed": false,
          "internalType": "string",
          "name": "name",
          "type": "string"
        },
        {
          "indexed": false,
          "internalType": "uint256",
          "name": "dna",
          "type": "uint256"
        }
      ],
      "name": "NewZombie",
      "type": "event"
    },
    {
      "inputs": [
        {
          "internalType": "uint256",
          "name": "",
          "type": "uint256"
        }
      ],
      "name": "zombieToOwner",
      "outputs": [
        {
          "internalType": "address",
          "name": "",
          "type": "address"
        }
      ],
      "stateMutability": "view",
      "type": "function",
      "constant": true
    },
    {
      "inputs": [
        {
          "internalType": "uint256",
          "name": "",
          "type": "uint256"
        }
      ],
      "name": "zombies",
      "outputs": [
        {
          "internalType": "string",
          "name": "name",
          "type": "string"
        },
        {
          "internalType": "uint256",
          "name": "dna",
          "type": "uint256"
        }
      ],
      "stateMutability": "view",
      "type": "function",
      "constant": true
    },
    {
      "inputs": [
        {
          "internalType": "string",
          "name": "_name",
          "type": "string"
        }
      ],
      "name": "createRandomZombie",
      "outputs": [],
      "stateMutability": "nonpayable",
      "type": "function"
    },
    {
      "inputs": [],
      "name": "read",
      "outputs": [
        {
          "components": [
            {
              "internalType": "string",
              "name": "name",
              "type": "string"
            },
            {
              "internalType": "uint256",
              "name": "dna",
              "type": "uint256"
            }
          ],
          "internalType": "struct ZombieFactory.Zombie[]",
          "name": "",
          "type": "tuple[]"
        }
      ],
      "stateMutability": "view",
      "type": "function",
      "constant": true
    }
  ],
  "bytecode": "0x60806040526010600055600054600a6200001a9190620001be565b6001553480156200002a57600080fd5b506200020f565b7f4e487b7100000000000000000000000000000000000000000000000000000000600052601160045260246000fd5b60008160011c9050919050565b6000808291508390505b6001851115620000bf5780860481111562000097576200009662000031565b5b6001851615620000a75780820291505b8081029050620000b78562000060565b945062000077565b94509492505050565b600082620000da5760019050620001ad565b81620000ea5760009050620001ad565b81600181146200010357600281146200010e5762000144565b6001915050620001ad565b60ff84111562000123576200012262000031565b5b8360020a9150848211156200013d576200013c62000031565b5b50620001ad565b5060208310610133831016604e8410600b84101617156200017e5782820a90508381111562000178576200017762000031565b5b620001ad565b6200018d84848460016200006d565b92509050818404811115620001a757620001a662000031565b5b81810290505b9392505050565b6000819050919050565b6000620001cb82620001b4565b9150620001d883620001b4565b9250620002077fffffffffffffffffffffffffffffffffffffffffffffffffffffffffffffffff8484620000c8565b905092915050565b610e2b806200021f6000396000f3fe608060405234801561001057600080fd5b506004361061004c5760003560e01c80632052465e14610051578063528b7b8f1461008257806357de26a4146100b25780637bff0a01146100d0575b600080fd5b61006b6004803603810190610066919061052b565b6100ec565b6040516100799291906105f7565b60405180910390f35b61009c6004803603810190610097919061052b565b6101a8565b6040516100a99190610668565b60405180910390f35b6100ba6101db565b6040516100c791906107db565b60405180910390f35b6100ea60048036038101906100e59190610932565b6102d6565b005b600281815481106100fc57600080fd5b906000526020600020906002020160009150905080600001805461011f906109aa565b80601f016020809104026020016040519081016040528092919081815260200182805461014b906109aa565b80156101985780601f1061016d57610100808354040283529160200191610198565b820191906000526020600020905b81548152906001019060200180831161017b57829003601f168201915b5050505050908060010154905082565b60036020528060005260406000206000915054906101000a900473ffffffffffffffffffffffffffffffffffffffff1681565b60606002805480602002602001604051908101604052809291908181526020016000905b828210156102cd5783829060005260206000209060020201604051806040016040529081600082018054610232906109aa565b80601f016020809104026020016040519081016040528092919081815260200182805461025e906109aa565b80156102ab5780601f10610280576101008083540402835291602001916102ab565b820191906000526020600020905b81548152906001019060200180831161028e57829003601f168201915b50505050508152602001600182015481525050815260200190600101906101ff565b50505050905090565b6000600460003373ffffffffffffffffffffffffffffffffffffffff1673ffffffffffffffffffffffffffffffffffffffff168152602001908152602001600020541461032257600080fd5b600061032d8261033d565b90506103398282610382565b5050565b600080826040516020016103519190610a17565b6040516020818303038152906040528051906020012060001c90506001548161037a9190610a5d565b915050919050565b6002604051806040016040528084815260200183815250908060018154018082558091505060019003906000526020600020906002020160009091909190915060008201518160000190816103d79190610c3a565b50602082015181600101555050600060016002805490506103f89190610d3b565b9050336003600083815260200190815260200160002060006101000a81548173ffffffffffffffffffffffffffffffffffffffff021916908373ffffffffffffffffffffffffffffffffffffffff160217905550600460003373ffffffffffffffffffffffffffffffffffffffff1673ffffffffffffffffffffffffffffffffffffffff168152602001908152602001600020600081548092919061049c90610d6f565b91905055507f88f026aacbbecc90c18411df4b1185fd8d9be2470f1962f192bf84a27d0704b78184846040516104d493929190610db7565b60405180910390a1505050565b6000604051905090565b600080fd5b600080fd5b6000819050919050565b610508816104f5565b811461051357600080fd5b50565b600081359050610525816104ff565b92915050565b600060208284031215610541576105406104eb565b5b600061054f84828501610516565b91505092915050565b600081519050919050565b600082825260208201905092915050565b60005b83811015610592578082015181840152602081019050610577565b60008484015250505050565b6000601f19601f8301169050919050565b60006105ba82610558565b6105c48185610563565b93506105d4818560208601610574565b6105dd8161059e565b840191505092915050565b6105f1816104f5565b82525050565b6000604082019050818103600083015261061181856105af565b905061062060208301846105e8565b9392505050565b600073ffffffffffffffffffffffffffffffffffffffff82169050919050565b600061065282610627565b9050919050565b61066281610647565b82525050565b600060208201905061067d6000830184610659565b92915050565b600081519050919050565b600082825260208201905092915050565b6000819050602082019050919050565b600082825260208201905092915050565b60006106cb82610558565b6106d581856106af565b93506106e5818560208601610574565b6106ee8161059e565b840191505092915050565b610702816104f5565b82525050565b6000604083016000830151848203600086015261072582826106c0565b915050602083015161073a60208601826106f9565b508091505092915050565b60006107518383610708565b905092915050565b6000602082019050919050565b600061077182610683565b61077b818561068e565b93508360208202850161078d8561069f565b8060005b858110156107c957848403895281516107aa8582610745565b94506107b583610759565b925060208a01995050600181019050610791565b50829750879550505050505092915050565b600060208201905081810360008301526107f58184610766565b905092915050565b600080fd5b600080fd5b7f4e487b7100000000000000000000000000000000000000000000000000000000600052604160045260246000fd5b61083f8261059e565b810181811067ffffffffffffffff8211171561085e5761085d610807565b5b80604052505050565b60006108716104e1565b905061087d8282610836565b919050565b600067ffffffffffffffff82111561089d5761089c610807565b5b6108a68261059e565b9050602081019050919050565b82818337600083830152505050565b60006108d56108d084610882565b610867565b9050828152602081018484840111156108f1576108f0610802565b5b6108fc8482856108b3565b509392505050565b600082601f830112610919576109186107fd565b5b81356109298482602086016108c2565b91505092915050565b600060208284031215610948576109476104eb565b5b600082013567ffffffffffffffff811115610966576109656104f0565b5b61097284828501610904565b91505092915050565b7f4e487b7100000000000000000000000000000000000000000000000000000000600052602260045260246000fd5b600060028204905060018216806109c257607f821691505b6020821081036109d5576109d461097b565b5b50919050565b600081905092915050565b60006109f182610558565b6109fb81856109db565b9350610a0b818560208601610574565b80840191505092915050565b6000610a2382846109e6565b915081905092915050565b7f4e487b7100000000000000000000000000000000000000000000000000000000600052601260045260246000fd5b6000610a68826104f5565b9150610a73836104f5565b925082610a8357610a82610a2e565b5b828206905092915050565b60008190508160005260206000209050919050565b60006020601f8301049050919050565b600082821b905092915050565b600060088302610af07fffffffffffffffffffffffffffffffffffffffffffffffffffffffffffffffff82610ab3565b610afa8683610ab3565b95508019841693508086168417925050509392505050565b6000819050919050565b6000610b37610b32610b2d846104f5565b610b12565b6104f5565b9050919050565b6000819050919050565b610b5183610b1c565b610b65610b5d82610b3e565b848454610ac0565b825550505050565b600090565b610b7a610b6d565b610b85818484610b48565b505050565b5b81811015610ba957610b9e600082610b72565b600181019050610b8b565b5050565b601f821115610bee57610bbf81610a8e565b610bc884610aa3565b81016020851015610bd7578190505b610beb610be385610aa3565b830182610b8a565b50505b505050565b600082821c905092915050565b6000610c1160001984600802610bf3565b1980831691505092915050565b6000610c2a8383610c00565b9150826002028217905092915050565b610c4382610558565b67ffffffffffffffff811115610c5c57610c5b610807565b5b610c6682546109aa565b610c71828285610bad565b600060209050601f831160018114610ca45760008415610c92578287015190505b610c9c8582610c1e565b865550610d04565b601f198416610cb286610a8e565b60005b82811015610cda57848901518255600182019150602085019450602081019050610cb5565b86831015610cf75784890151610cf3601f891682610c00565b8355505b6001600288020188555050505b505050505050565b7f4e487b7100000000000000000000000000000000000000000000000000000000600052601160045260246000fd5b6000610d46826104f5565b9150610d51836104f5565b9250828203905081811115610d6957610d68610d0c565b5b92915050565b6000610d7a826104f5565b91507fffffffffffffffffffffffffffffffffffffffffffffffffffffffffffffffff8203610dac57610dab610d0c565b5b600182019050919050565b6000606082019050610dcc60008301866105e8565b8181036020830152610dde81856105af565b9050610ded60408301846105e8565b94935050505056fea2646970667358221220886b176407e1d7198da577b2c01ef974941b717781ddb3afcdb0fd83d27354a364736f6c63430008120033",
  "immutableReferences": {},
  "source": "pragma solidity >=0.4.22 <0.9.0;\n\ncontract ZombieFactory {\n\n    event NewZombie(uint zombieId, string name, uint dna);\n\n    uint dnaDigits = 16;\n    uint dnaModulus = 10 ** dnaDigits;\n\n    struct Zombie {\n        string name;\n        uint dna;\n    }\n\n    Zombie[] public zombies;\n\n    mapping (uint => address) public zombieToOwner;\n    mapping (address => uint) ownerZombieCount;\n\n    function _createZombie(string memory _name, uint _dna) internal {\n        zombies.push(Zombie(_name, _dna));\n        uint id = zombies.length - 1;\n        zombieToOwner[id] = msg.sender;\n        ownerZombieCount[msg.sender]++;\n        emit NewZombie(id, _name, _dna);\n    }\n\n    function _generateRandomDna(string memory _str) private view returns (uint) {\n        uint rand = uint(keccak256(abi.encodePacked(_str)));\n        return rand % dnaModulus;\n    }\n\n    function createRandomZombie(string memory _name) public {\n        require(ownerZombieCount[msg.sender] == 0);\n        uint randDna = _generateRandomDna(_name);\n        _createZombie(_name, randDna);\n    }\n\n    function read() public view returns (Zombie[] memory) {\n        return zombies;\n    }\n}\n",
  "sourcePath": "/home/ethdev/Desktop/CryptoZombiesReact/truffle/contracts/ZombieFactory.sol",
  "compiler": {
    "name": "solc",
    "version": "0.8.18+commit.87f61d96.Emscripten.clang"
  },
  "schemaVersion": "3.4.15",
  "updatedAt": "2024-01-23T19:00:20.326Z",
  "networkType": "ethereum",
  "devdoc": {
    "kind": "dev",
    "methods": {},
    "version": 1
  },
  "userdoc": {
    "kind": "user",
    "methods": {},
    "version": 1
  }
}