{
  "contractName": "ZombieFactory",
  "abi": [
    {
      "anonymous": false,
      "inputs": [
        {
          "indexed": false,
          "internalType": "uint256",
          "name": "zombieId",
          "type": "uint256"
        },
        {
          "indexed": false,
          "internalType": "string",
          "name": "name",
          "type": "string"
        },
        {
          "indexed": false,
          "internalType": "uint256",
          "name": "dna",
          "type": "uint256"
        }
      ],
      "name": "NewZombie",
      "type": "event"
    },
    {
      "inputs": [
        {
          "internalType": "uint256",
          "name": "",
          "type": "uint256"
        }
      ],
      "name": "zombies",
      "outputs": [
        {
          "internalType": "string",
          "name": "name",
          "type": "string"
        },
        {
          "internalType": "uint256",
          "name": "dna",
          "type": "uint256"
        }
      ],
      "stateMutability": "view",
      "type": "function",
      "constant": true
    },
    {
      "inputs": [
        {
          "internalType": "string",
          "name": "_name",
          "type": "string"
        }
      ],
      "name": "createRandomZombie",
      "outputs": [],
      "stateMutability": "nonpayable",
      "type": "function"
    },
    {
      "inputs": [],
      "name": "read",
      "outputs": [
        {
          "components": [
            {
              "internalType": "string",
              "name": "name",
              "type": "string"
            },
            {
              "internalType": "uint256",
              "name": "dna",
              "type": "uint256"
            }
          ],
          "internalType": "struct ZombieFactory.Zombie[]",
          "name": "",
          "type": "tuple[]"
        }
      ],
      "stateMutability": "view",
      "type": "function",
      "constant": true
    }
  ],
  "bytecode": "0x60806040526010600055600054600a6200001a9190620001be565b6001553480156200002a57600080fd5b506200020f565b7f4e487b7100000000000000000000000000000000000000000000000000000000600052601160045260246000fd5b60008160011c9050919050565b6000808291508390505b6001851115620000bf5780860481111562000097576200009662000031565b5b6001851615620000a75780820291505b8081029050620000b78562000060565b945062000077565b94509492505050565b600082620000da5760019050620001ad565b81620000ea5760009050620001ad565b81600181146200010357600281146200010e5762000144565b6001915050620001ad565b60ff84111562000123576200012262000031565b5b8360020a9150848211156200013d576200013c62000031565b5b50620001ad565b5060208310610133831016604e8410600b84101617156200017e5782820a90508381111562000178576200017762000031565b5b620001ad565b6200018d84848460016200006d565b92509050818404811115620001a757620001a662000031565b5b81810290505b9392505050565b6000819050919050565b6000620001cb82620001b4565b9150620001d883620001b4565b9250620002077fffffffffffffffffffffffffffffffffffffffffffffffffffffffffffffffff8484620000c8565b905092915050565b610c26806200021f6000396000f3fe608060405234801561001057600080fd5b50600436106100415760003560e01c80632052465e1461004657806357de26a4146100775780637bff0a0114610095575b600080fd5b610060600480360381019061005b91906103ca565b6100b1565b60405161006e929190610496565b60405180910390f35b61007f61016d565b60405161008c919061061e565b60405180910390f35b6100af60048036038101906100aa9190610775565b610268565b005b600281815481106100c157600080fd5b90600052602060002090600202016000915090508060000180546100e4906107ed565b80601f0160208091040260200160405190810160405280929190818152602001828054610110906107ed565b801561015d5780601f106101325761010080835404028352916020019161015d565b820191906000526020600020905b81548152906001019060200180831161014057829003601f168201915b5050505050908060010154905082565b60606002805480602002602001604051908101604052809291908181526020016000905b8282101561025f57838290600052602060002090600202016040518060400160405290816000820180546101c4906107ed565b80601f01602080910402602001604051908101604052809291908181526020018280546101f0906107ed565b801561023d5780601f106102125761010080835404028352916020019161023d565b820191906000526020600020905b81548152906001019060200180831161022057829003601f168201915b5050505050815260200160018201548152505081526020019060010190610191565b50505050905090565b600061027382610283565b905061027f82826102c8565b5050565b60008082604051602001610297919061085a565b6040516020818303038152906040528051906020012060001c9050600154816102c091906108a0565b915050919050565b60026040518060400160405280848152602001838152509080600181540180825580915050600190039060005260206000209060020201600090919091909150600082015181600001908161031d9190610a7d565b506020820151816001015550506000600160028054905061033e9190610b7e565b90507f88f026aacbbecc90c18411df4b1185fd8d9be2470f1962f192bf84a27d0704b781848460405161037393929190610bb2565b60405180910390a1505050565b6000604051905090565b600080fd5b600080fd5b6000819050919050565b6103a781610394565b81146103b257600080fd5b50565b6000813590506103c48161039e565b92915050565b6000602082840312156103e0576103df61038a565b5b60006103ee848285016103b5565b91505092915050565b600081519050919050565b600082825260208201905092915050565b60005b83811015610431578082015181840152602081019050610416565b60008484015250505050565b6000601f19601f8301169050919050565b6000610459826103f7565b6104638185610402565b9350610473818560208601610413565b61047c8161043d565b840191505092915050565b61049081610394565b82525050565b600060408201905081810360008301526104b0818561044e565b90506104bf6020830184610487565b9392505050565b600081519050919050565b600082825260208201905092915050565b6000819050602082019050919050565b600082825260208201905092915050565b600061050e826103f7565b61051881856104f2565b9350610528818560208601610413565b6105318161043d565b840191505092915050565b61054581610394565b82525050565b600060408301600083015184820360008601526105688282610503565b915050602083015161057d602086018261053c565b508091505092915050565b6000610594838361054b565b905092915050565b6000602082019050919050565b60006105b4826104c6565b6105be81856104d1565b9350836020820285016105d0856104e2565b8060005b8581101561060c57848403895281516105ed8582610588565b94506105f88361059c565b925060208a019950506001810190506105d4565b50829750879550505050505092915050565b6000602082019050818103600083015261063881846105a9565b905092915050565b600080fd5b600080fd5b7f4e487b7100000000000000000000000000000000000000000000000000000000600052604160045260246000fd5b6106828261043d565b810181811067ffffffffffffffff821117156106a1576106a061064a565b5b80604052505050565b60006106b4610380565b90506106c08282610679565b919050565b600067ffffffffffffffff8211156106e0576106df61064a565b5b6106e98261043d565b9050602081019050919050565b82818337600083830152505050565b6000610718610713846106c5565b6106aa565b90508281526020810184848401111561073457610733610645565b5b61073f8482856106f6565b509392505050565b600082601f83011261075c5761075b610640565b5b813561076c848260208601610705565b91505092915050565b60006020828403121561078b5761078a61038a565b5b600082013567ffffffffffffffff8111156107a9576107a861038f565b5b6107b584828501610747565b91505092915050565b7f4e487b7100000000000000000000000000000000000000000000000000000000600052602260045260246000fd5b6000600282049050600182168061080557607f821691505b602082108103610818576108176107be565b5b50919050565b600081905092915050565b6000610834826103f7565b61083e818561081e565b935061084e818560208601610413565b80840191505092915050565b60006108668284610829565b915081905092915050565b7f4e487b7100000000000000000000000000000000000000000000000000000000600052601260045260246000fd5b60006108ab82610394565b91506108b683610394565b9250826108c6576108c5610871565b5b828206905092915050565b60008190508160005260206000209050919050565b60006020601f8301049050919050565b600082821b905092915050565b6000600883026109337fffffffffffffffffffffffffffffffffffffffffffffffffffffffffffffffff826108f6565b61093d86836108f6565b95508019841693508086168417925050509392505050565b6000819050919050565b600061097a61097561097084610394565b610955565b610394565b9050919050565b6000819050919050565b6109948361095f565b6109a86109a082610981565b848454610903565b825550505050565b600090565b6109bd6109b0565b6109c881848461098b565b505050565b5b818110156109ec576109e16000826109b5565b6001810190506109ce565b5050565b601f821115610a3157610a02816108d1565b610a0b846108e6565b81016020851015610a1a578190505b610a2e610a26856108e6565b8301826109cd565b50505b505050565b600082821c905092915050565b6000610a5460001984600802610a36565b1980831691505092915050565b6000610a6d8383610a43565b9150826002028217905092915050565b610a86826103f7565b67ffffffffffffffff811115610a9f57610a9e61064a565b5b610aa982546107ed565b610ab48282856109f0565b600060209050601f831160018114610ae75760008415610ad5578287015190505b610adf8582610a61565b865550610b47565b601f198416610af5866108d1565b60005b82811015610b1d57848901518255600182019150602085019450602081019050610af8565b86831015610b3a5784890151610b36601f891682610a43565b8355505b6001600288020188555050505b505050505050565b7f4e487b7100000000000000000000000000000000000000000000000000000000600052601160045260246000fd5b6000610b8982610394565b9150610b9483610394565b9250828203905081811115610bac57610bab610b4f565b5b92915050565b6000606082019050610bc76000830186610487565b8181036020830152610bd9818561044e565b9050610be86040830184610487565b94935050505056fea26469706673582212204bd57d1a1e641047f000be0c690b8cae294336f6c5bd35b757d31b8255a59c1964736f6c63430008120033",
  "immutableReferences": {},
  "source": "pragma solidity >=0.4.22 <0.9.0;\n\ncontract ZombieFactory {\n\n    event NewZombie(uint zombieId, string name, uint dna);\n\n    uint dnaDigits = 16;\n    uint dnaModulus = 10 ** dnaDigits;\n\n    struct Zombie {\n        string name;\n        uint dna;\n    }\n\n    Zombie[] public zombies;\n\n    function _createZombie(string memory _name, uint _dna) private {\n        zombies.push(Zombie(_name, _dna));\n        uint id = zombies.length - 1;\n        emit NewZombie(id, _name, _dna);\n    }\n\n    function _generateRandomDna(string memory _str) private view returns (uint) {\n        uint rand = uint(keccak256(abi.encodePacked(_str)));\n        return rand % dnaModulus;\n    }\n\n    function createRandomZombie(string memory _name) public {\n        uint randDna = _generateRandomDna(_name);\n        _createZombie(_name, randDna);\n    }\n\n    function read() public view returns (Zombie[] memory) {\n        return zombies;\n    }\n}\n",
  "sourcePath": "/home/ethdev/Desktop/CryptoZombiesReact/truffle/contracts/ZombieFactory.sol",
  "compiler": {
    "name": "solc",
    "version": "0.8.18+commit.87f61d96.Emscripten.clang"
  },
  "schemaVersion": "3.4.15",
  "updatedAt": "2024-01-20T13:31:41.686Z",
  "networkType": "ethereum",
  "devdoc": {
    "kind": "dev",
    "methods": {},
    "version": 1
  },
  "userdoc": {
    "kind": "user",
    "methods": {},
    "version": 1
  }
}