{
  "contractName": "ZombieHelper",
  "abi": [
    {
      "inputs": [
        {
          "internalType": "address",
          "name": "owner",
          "type": "address"
        }
      ],
      "name": "OwnableInvalidOwner",
      "type": "error"
    },
    {
      "inputs": [
        {
          "internalType": "address",
          "name": "account",
          "type": "address"
        }
      ],
      "name": "OwnableUnauthorizedAccount",
      "type": "error"
    },
    {
      "anonymous": false,
      "inputs": [
        {
          "indexed": false,
          "internalType": "uint256",
          "name": "zombieId",
          "type": "uint256"
        },
        {
          "indexed": false,
          "internalType": "string",
          "name": "name",
          "type": "string"
        },
        {
          "indexed": false,
          "internalType": "uint256",
          "name": "dna",
          "type": "uint256"
        }
      ],
      "name": "NewZombie",
      "type": "event"
    },
    {
      "anonymous": false,
      "inputs": [
        {
          "indexed": true,
          "internalType": "address",
          "name": "previousOwner",
          "type": "address"
        },
        {
          "indexed": true,
          "internalType": "address",
          "name": "newOwner",
          "type": "address"
        }
      ],
      "name": "OwnershipTransferred",
      "type": "event"
    },
    {
      "inputs": [
        {
          "internalType": "string",
          "name": "_name",
          "type": "string"
        }
      ],
      "name": "createRandomZombie",
      "outputs": [],
      "stateMutability": "nonpayable",
      "type": "function"
    },
    {
      "inputs": [
        {
          "internalType": "uint256",
          "name": "_zombieId",
          "type": "uint256"
        },
        {
          "internalType": "uint256",
          "name": "_kittyId",
          "type": "uint256"
        }
      ],
      "name": "feedOnKitty",
      "outputs": [],
      "stateMutability": "nonpayable",
      "type": "function"
    },
    {
      "inputs": [],
      "name": "owner",
      "outputs": [
        {
          "internalType": "address",
          "name": "",
          "type": "address"
        }
      ],
      "stateMutability": "view",
      "type": "function"
    },
    {
      "inputs": [],
      "name": "read",
      "outputs": [
        {
          "components": [
            {
              "internalType": "string",
              "name": "name",
              "type": "string"
            },
            {
              "internalType": "uint256",
              "name": "dna",
              "type": "uint256"
            },
            {
              "internalType": "uint32",
              "name": "level",
              "type": "uint32"
            },
            {
              "internalType": "uint32",
              "name": "readyTime",
              "type": "uint32"
            },
            {
              "internalType": "uint16",
              "name": "winCount",
              "type": "uint16"
            },
            {
              "internalType": "uint16",
              "name": "lossCount",
              "type": "uint16"
            }
          ],
          "internalType": "struct ZombieFactory.Zombie[]",
          "name": "",
          "type": "tuple[]"
        }
      ],
      "stateMutability": "view",
      "type": "function"
    },
    {
      "inputs": [],
      "name": "renounceOwnership",
      "outputs": [],
      "stateMutability": "nonpayable",
      "type": "function"
    },
    {
      "inputs": [
        {
          "internalType": "address",
          "name": "_address",
          "type": "address"
        }
      ],
      "name": "setKittyContractAddress",
      "outputs": [],
      "stateMutability": "nonpayable",
      "type": "function"
    },
    {
      "inputs": [
        {
          "internalType": "address",
          "name": "newOwner",
          "type": "address"
        }
      ],
      "name": "transferOwnership",
      "outputs": [],
      "stateMutability": "nonpayable",
      "type": "function"
    },
    {
      "inputs": [
        {
          "internalType": "uint256",
          "name": "",
          "type": "uint256"
        }
      ],
      "name": "zombieToOwner",
      "outputs": [
        {
          "internalType": "address",
          "name": "",
          "type": "address"
        }
      ],
      "stateMutability": "view",
      "type": "function"
    },
    {
      "inputs": [
        {
          "internalType": "uint256",
          "name": "",
          "type": "uint256"
        }
      ],
      "name": "zombies",
      "outputs": [
        {
          "internalType": "string",
          "name": "name",
          "type": "string"
        },
        {
          "internalType": "uint256",
          "name": "dna",
          "type": "uint256"
        },
        {
          "internalType": "uint32",
          "name": "level",
          "type": "uint32"
        },
        {
          "internalType": "uint32",
          "name": "readyTime",
          "type": "uint32"
        },
        {
          "internalType": "uint16",
          "name": "winCount",
          "type": "uint16"
        },
        {
          "internalType": "uint16",
          "name": "lossCount",
          "type": "uint16"
        }
      ],
      "stateMutability": "view",
      "type": "function"
    },
    {
      "inputs": [],
      "name": "withdraw",
      "outputs": [],
      "stateMutability": "nonpayable",
      "type": "function"
    },
    {
      "inputs": [
        {
          "internalType": "uint256",
          "name": "_fee",
          "type": "uint256"
        }
      ],
      "name": "setLevelUpFee",
      "outputs": [],
      "stateMutability": "nonpayable",
      "type": "function"
    },
    {
      "inputs": [
        {
          "internalType": "uint256",
          "name": "_zombieId",
          "type": "uint256"
        }
      ],
      "name": "levelUp",
      "outputs": [],
      "stateMutability": "payable",
      "type": "function"
    },
    {
      "inputs": [
        {
          "internalType": "uint256",
          "name": "_zombieId",
          "type": "uint256"
        },
        {
          "internalType": "string",
          "name": "_newName",
          "type": "string"
        }
      ],
      "name": "changeName",
      "outputs": [],
      "stateMutability": "nonpayable",
      "type": "function"
    },
    {
      "inputs": [
        {
          "internalType": "uint256",
          "name": "_zombieId",
          "type": "uint256"
        },
        {
          "internalType": "uint256",
          "name": "_newDna",
          "type": "uint256"
        }
      ],
      "name": "changeDna",
      "outputs": [],
      "stateMutability": "nonpayable",
      "type": "function"
    },
    {
      "inputs": [
        {
          "internalType": "address",
          "name": "_owner",
          "type": "address"
        }
      ],
      "name": "getZombiesByOwner",
      "outputs": [
        {
          "internalType": "uint256[]",
          "name": "",
          "type": "uint256[]"
        }
      ],
      "stateMutability": "view",
      "type": "function"
    }
  ],
  "bytecode": "0x60806040526010600155600154600a6200001a91906200030f565b6002556201518060035566038d7ea4c680006008553480156200003b575f80fd5b50335f73ffffffffffffffffffffffffffffffffffffffff168173ffffffffffffffffffffffffffffffffffffffff1603620000b0575f6040517f1e4fbdf7000000000000000000000000000000000000000000000000000000008152600401620000a79190620003a2565b60405180910390fd5b620000c181620000c860201b60201c565b50620003bd565b5f805f9054906101000a900473ffffffffffffffffffffffffffffffffffffffff169050815f806101000a81548173ffffffffffffffffffffffffffffffffffffffff021916908373ffffffffffffffffffffffffffffffffffffffff1602179055508173ffffffffffffffffffffffffffffffffffffffff168173ffffffffffffffffffffffffffffffffffffffff167f8be0079c531659141344cd1fd0a4f28419497f9722a3daafe3b4186f6b6457e060405160405180910390a35050565b7f4e487b71000000000000000000000000000000000000000000000000000000005f52601160045260245ffd5b5f8160011c9050919050565b5f808291508390505b60018511156200021357808604811115620001eb57620001ea62000189565b5b6001851615620001fb5780820291505b80810290506200020b85620001b6565b9450620001cb565b94509492505050565b5f826200022d5760019050620002ff565b816200023c575f9050620002ff565b8160018114620002555760028114620002605762000296565b6001915050620002ff565b60ff84111562000275576200027462000189565b5b8360020a9150848211156200028f576200028e62000189565b5b50620002ff565b5060208310610133831016604e8410600b8410161715620002d05782820a905083811115620002ca57620002c962000189565b5b620002ff565b620002df8484846001620001c2565b92509050818404811115620002f957620002f862000189565b5b81810290505b9392505050565b5f819050919050565b5f6200031b8262000306565b9150620003288362000306565b9250620003577fffffffffffffffffffffffffffffffffffffffffffffffffffffffffffffffff84846200021c565b905092915050565b5f73ffffffffffffffffffffffffffffffffffffffff82169050919050565b5f6200038a826200035f565b9050919050565b6200039c816200037e565b82525050565b5f602082019050620003b75f83018462000391565b92915050565b61213a80620003cb5f395ff3fe6080604052600436106100e7575f3560e01c80635f4623f1116100895780638da5cb5b116100585780638da5cb5b146102b6578063c39cbef1146102e0578063ccf670f814610308578063f2fde38b14610330576100e7565b80635f4623f1146102285780635faf288014610250578063715018a6146102785780637bff0a011461028e576100e7565b80633ccfd60b116100c55780633ccfd60b146101705780634412e10414610186578063528b7b8f146101c257806357de26a4146101fe576100e7565b80630ce90ec2146100eb57806317a7f4cc146101075780632052465e1461012f575b5f80fd5b61010560048036038101906101009190611266565b610358565b005b348015610112575f80fd5b5061012d60048036038101906101289190611291565b6103c9565b005b34801561013a575f80fd5b5061015560048036038101906101509190611266565b6104e3565b604051610167969594939291906113a2565b60405180910390f35b34801561017b575f80fd5b506101846105eb565b005b348015610191575f80fd5b506101ac60048036038101906101a79190611462565b610645565b6040516101b99190611544565b60405180910390f35b3480156101cd575f80fd5b506101e860048036038101906101e39190611266565b610790565b6040516101f59190611573565b60405180910390f35b348015610209575f80fd5b506102126107c0565b60405161021f9190611733565b60405180910390f35b348015610233575f80fd5b5061024e60048036038101906102499190611462565b610940565b005b34801561025b575f80fd5b5061027660048036038101906102719190611291565b61098b565b005b348015610283575f80fd5b5061028c610a69565b005b348015610299575f80fd5b506102b460048036038101906102af919061187f565b610a7c565b005b3480156102c1575f80fd5b506102ca610ade565b6040516102d79190611573565b60405180910390f35b3480156102eb575f80fd5b5061030660048036038101906103019190611923565b610b05565b005b348015610313575f80fd5b5061032e60048036038101906103299190611266565b610bee565b005b34801561033b575f80fd5b5061035660048036038101906103519190611462565b610c00565b005b6008543414610365575f80fd5b6004818154811061037957610378611980565b5b905f5260205f2090600302016002015f81819054906101000a900463ffffffff16809291906103a7906119da565b91906101000a81548163ffffffff021916908363ffffffff1602179055505050565b5f60075f9054906101000a900473ffffffffffffffffffffffffffffffffffffffff1673ffffffffffffffffffffffffffffffffffffffff1663e98b7f4d836040518263ffffffff1660e01b81526004016104249190611a05565b61014060405180830381865afa158015610440573d5f803e3d5ffd5b505050506040513d601f19601f820116820180604052508101906104649190611a67565b909192939495969798509091929394959697509091929394959650909192939495509091929394509091929350909192509091509050809150506104de83826040518060400160405280600581526020017f6b69747479000000000000000000000000000000000000000000000000000000815250610c84565b505050565b600481815481106104f2575f80fd5b905f5260205f2090600302015f91509050805f01805461051190611b6d565b80601f016020809104026020016040519081016040528092919081815260200182805461053d90611b6d565b80156105885780601f1061055f57610100808354040283529160200191610588565b820191905f5260205f20905b81548152906001019060200180831161056b57829003601f168201915b505050505090806001015490806002015f9054906101000a900463ffffffff16908060020160049054906101000a900463ffffffff16908060020160089054906101000a900461ffff169080600201600a9054906101000a900461ffff16905086565b6105f3610e17565b5f6105fc610ade565b90508073ffffffffffffffffffffffffffffffffffffffff166108fc4790811502906040515f60405180830381858888f19350505050158015610641573d5f803e3d5ffd5b5050565b60605f60065f8473ffffffffffffffffffffffffffffffffffffffff1673ffffffffffffffffffffffffffffffffffffffff1681526020019081526020015f205467ffffffffffffffff81111561069f5761069e61175b565b5b6040519080825280602002602001820160405280156106cd5781602001602082028036833780820191505090505b5090505f805b600480549050811015610785578473ffffffffffffffffffffffffffffffffffffffff1660055f8381526020019081526020015f205f9054906101000a900473ffffffffffffffffffffffffffffffffffffffff1673ffffffffffffffffffffffffffffffffffffffff1603610772578083838151811061075757610756611980565b5b602002602001018181525050818061076e90611b9d565b9250505b808061077d90611b9d565b9150506106d3565b508192505050919050565b6005602052805f5260405f205f915054906101000a900473ffffffffffffffffffffffffffffffffffffffff1681565b60606004805480602002602001604051908101604052809291908181526020015f905b82821015610937578382905f5260205f2090600302016040518060c00160405290815f8201805461081390611b6d565b80601f016020809104026020016040519081016040528092919081815260200182805461083f90611b6d565b801561088a5780601f106108615761010080835404028352916020019161088a565b820191905f5260205f20905b81548152906001019060200180831161086d57829003601f168201915b5050505050815260200160018201548152602001600282015f9054906101000a900463ffffffff1663ffffffff1663ffffffff1681526020016002820160049054906101000a900463ffffffff1663ffffffff1663ffffffff1681526020016002820160089054906101000a900461ffff1661ffff1661ffff16815260200160028201600a9054906101000a900461ffff1661ffff1661ffff1681525050815260200190600101906107e3565b50505050905090565b610948610e17565b8060075f6101000a81548173ffffffffffffffffffffffffffffffffffffffff021916908373ffffffffffffffffffffffffffffffffffffffff16021790555050565b60148281600482815481106109a3576109a2611980565b5b905f5260205f2090600302016002015f9054906101000a900463ffffffff1663ffffffff1610156109d2575f80fd5b833373ffffffffffffffffffffffffffffffffffffffff1660055f8381526020019081526020015f205f9054906101000a900473ffffffffffffffffffffffffffffffffffffffff1673ffffffffffffffffffffffffffffffffffffffff1614610a3a575f80fd5b8360048681548110610a4f57610a4e611980565b5b905f5260205f209060030201600101819055505050505050565b610a71610e17565b610a7a5f610e9e565b565b5f60065f3373ffffffffffffffffffffffffffffffffffffffff1673ffffffffffffffffffffffffffffffffffffffff1681526020019081526020015f205414610ac4575f80fd5b5f610ace82610f5f565b9050610ada8282610fa2565b5050565b5f805f9054906101000a900473ffffffffffffffffffffffffffffffffffffffff16905090565b6002838160048281548110610b1d57610b1c611980565b5b905f5260205f2090600302016002015f9054906101000a900463ffffffff1663ffffffff161015610b4c575f80fd5b843373ffffffffffffffffffffffffffffffffffffffff1660055f8381526020019081526020015f205f9054906101000a900473ffffffffffffffffffffffffffffffffffffffff1673ffffffffffffffffffffffffffffffffffffffff1614610bb4575f80fd5b848460048881548110610bca57610bc9611980565b5b905f5260205f2090600302015f019182610be5929190611d8b565b50505050505050565b610bf6610e17565b8060088190555050565b610c08610e17565b5f73ffffffffffffffffffffffffffffffffffffffff168173ffffffffffffffffffffffffffffffffffffffff1603610c78575f6040517f1e4fbdf7000000000000000000000000000000000000000000000000000000008152600401610c6f9190611573565b60405180910390fd5b610c8181610e9e565b50565b823373ffffffffffffffffffffffffffffffffffffffff1660055f8381526020019081526020015f205f9054906101000a900473ffffffffffffffffffffffffffffffffffffffff1673ffffffffffffffffffffffffffffffffffffffff1614610cec575f80fd5b5f60048581548110610d0157610d00611980565b5b905f5260205f2090600302019050610d18816111c2565b610d20575f80fd5b60025484610d2e9190611e85565b93505f6002858360010154610d439190611eb5565b610d4d9190611ee8565b9050604051602001610d5e90611f6c565b6040516020818303038152906040528051906020012084604051602001610d859190611fb0565b6040516020818303038152906040528051906020012003610dc7576063606482610daf9190611e85565b82610dba9190611fc6565b610dc49190611eb5565b90505b610e066040518060400160405280600681526020017f4e6f4e616d65000000000000000000000000000000000000000000000000000081525082610fa2565b610e0f826111e8565b505050505050565b610e1f61121b565b73ffffffffffffffffffffffffffffffffffffffff16610e3d610ade565b73ffffffffffffffffffffffffffffffffffffffff1614610e9c57610e6061121b565b6040517f118cdaa7000000000000000000000000000000000000000000000000000000008152600401610e939190611573565b60405180910390fd5b565b5f805f9054906101000a900473ffffffffffffffffffffffffffffffffffffffff169050815f806101000a81548173ffffffffffffffffffffffffffffffffffffffff021916908373ffffffffffffffffffffffffffffffffffffffff1602179055508173ffffffffffffffffffffffffffffffffffffffff168173ffffffffffffffffffffffffffffffffffffffff167f8be0079c531659141344cd1fd0a4f28419497f9722a3daafe3b4186f6b6457e060405160405180910390a35050565b5f8082604051602001610f729190611fb0565b604051602081830303815290604052805190602001205f1c905060025481610f9a9190611e85565b915050919050565b60046040518060c00160405280848152602001838152602001600163ffffffff16815260200160035442610fd69190611eb5565b63ffffffff1681526020015f61ffff1681526020015f61ffff16815250908060018154018082558091505060019003905f5260205f2090600302015f909190919091505f820151815f01908161102c9190611ff9565b50602082015181600101556040820151816002015f6101000a81548163ffffffff021916908363ffffffff16021790555060608201518160020160046101000a81548163ffffffff021916908363ffffffff16021790555060808201518160020160086101000a81548161ffff021916908361ffff16021790555060a082015181600201600a6101000a81548161ffff021916908361ffff16021790555050505f60016004805490506110df9190611fc6565b90503360055f8381526020019081526020015f205f6101000a81548173ffffffffffffffffffffffffffffffffffffffff021916908373ffffffffffffffffffffffffffffffffffffffff16021790555060065f3373ffffffffffffffffffffffffffffffffffffffff1673ffffffffffffffffffffffffffffffffffffffff1681526020019081526020015f205f81548092919061117d90611b9d565b91905055507f88f026aacbbecc90c18411df4b1185fd8d9be2470f1962f192bf84a27d0704b78184846040516111b5939291906120c8565b60405180910390a1505050565b5f428260020160049054906101000a900463ffffffff1663ffffffff1611159050919050565b600354426111f69190611eb5565b8160020160046101000a81548163ffffffff021916908363ffffffff16021790555050565b5f33905090565b5f604051905090565b5f80fd5b5f80fd5b5f819050919050565b61124581611233565b811461124f575f80fd5b50565b5f813590506112608161123c565b92915050565b5f6020828403121561127b5761127a61122b565b5b5f61128884828501611252565b91505092915050565b5f80604083850312156112a7576112a661122b565b5b5f6112b485828601611252565b92505060206112c585828601611252565b9150509250929050565b5f81519050919050565b5f82825260208201905092915050565b5f5b838110156113065780820151818401526020810190506112eb565b5f8484015250505050565b5f601f19601f8301169050919050565b5f61132b826112cf565b61133581856112d9565b93506113458185602086016112e9565b61134e81611311565b840191505092915050565b61136281611233565b82525050565b5f63ffffffff82169050919050565b61138081611368565b82525050565b5f61ffff82169050919050565b61139c81611386565b82525050565b5f60c0820190508181035f8301526113ba8189611321565b90506113c96020830188611359565b6113d66040830187611377565b6113e36060830186611377565b6113f06080830185611393565b6113fd60a0830184611393565b979650505050505050565b5f73ffffffffffffffffffffffffffffffffffffffff82169050919050565b5f61143182611408565b9050919050565b61144181611427565b811461144b575f80fd5b50565b5f8135905061145c81611438565b92915050565b5f602082840312156114775761147661122b565b5b5f6114848482850161144e565b91505092915050565b5f81519050919050565b5f82825260208201905092915050565b5f819050602082019050919050565b6114bf81611233565b82525050565b5f6114d083836114b6565b60208301905092915050565b5f602082019050919050565b5f6114f28261148d565b6114fc8185611497565b9350611507836114a7565b805f5b8381101561153757815161151e88826114c5565b9750611529836114dc565b92505060018101905061150a565b5085935050505092915050565b5f6020820190508181035f83015261155c81846114e8565b905092915050565b61156d81611427565b82525050565b5f6020820190506115865f830184611564565b92915050565b5f81519050919050565b5f82825260208201905092915050565b5f819050602082019050919050565b5f82825260208201905092915050565b5f6115cf826112cf565b6115d981856115b5565b93506115e98185602086016112e9565b6115f281611311565b840191505092915050565b61160681611368565b82525050565b61161581611386565b82525050565b5f60c083015f8301518482035f86015261163582826115c5565b915050602083015161164a60208601826114b6565b50604083015161165d60408601826115fd565b50606083015161167060608601826115fd565b506080830151611683608086018261160c565b5060a083015161169660a086018261160c565b508091505092915050565b5f6116ac838361161b565b905092915050565b5f602082019050919050565b5f6116ca8261158c565b6116d48185611596565b9350836020820285016116e6856115a6565b805f5b85811015611721578484038952815161170285826116a1565b945061170d836116b4565b925060208a019950506001810190506116e9565b50829750879550505050505092915050565b5f6020820190508181035f83015261174b81846116c0565b905092915050565b5f80fd5b5f80fd5b7f4e487b71000000000000000000000000000000000000000000000000000000005f52604160045260245ffd5b61179182611311565b810181811067ffffffffffffffff821117156117b0576117af61175b565b5b80604052505050565b5f6117c2611222565b90506117ce8282611788565b919050565b5f67ffffffffffffffff8211156117ed576117ec61175b565b5b6117f682611311565b9050602081019050919050565b828183375f83830152505050565b5f61182361181e846117d3565b6117b9565b90508281526020810184848401111561183f5761183e611757565b5b61184a848285611803565b509392505050565b5f82601f83011261186657611865611753565b5b8135611876848260208601611811565b91505092915050565b5f602082840312156118945761189361122b565b5b5f82013567ffffffffffffffff8111156118b1576118b061122f565b5b6118bd84828501611852565b91505092915050565b5f80fd5b5f80fd5b5f8083601f8401126118e3576118e2611753565b5b8235905067ffffffffffffffff811115611900576118ff6118c6565b5b60208301915083600182028301111561191c5761191b6118ca565b5b9250929050565b5f805f6040848603121561193a5761193961122b565b5b5f61194786828701611252565b935050602084013567ffffffffffffffff8111156119685761196761122f565b5b611974868287016118ce565b92509250509250925092565b7f4e487b71000000000000000000000000000000000000000000000000000000005f52603260045260245ffd5b7f4e487b71000000000000000000000000000000000000000000000000000000005f52601160045260245ffd5b5f6119e482611368565b915063ffffffff82036119fa576119f96119ad565b5b600182019050919050565b5f602082019050611a185f830184611359565b92915050565b5f8115159050919050565b611a3281611a1e565b8114611a3c575f80fd5b50565b5f81519050611a4d81611a29565b92915050565b5f81519050611a618161123c565b92915050565b5f805f805f805f805f806101408b8d031215611a8657611a8561122b565b5b5f611a938d828e01611a3f565b9a50506020611aa48d828e01611a3f565b9950506040611ab58d828e01611a53565b9850506060611ac68d828e01611a53565b9750506080611ad78d828e01611a53565b96505060a0611ae88d828e01611a53565b95505060c0611af98d828e01611a53565b94505060e0611b0a8d828e01611a53565b935050610100611b1c8d828e01611a53565b925050610120611b2e8d828e01611a53565b9150509295989b9194979a5092959850565b7f4e487b71000000000000000000000000000000000000000000000000000000005f52602260045260245ffd5b5f6002820490506001821680611b8457607f821691505b602082108103611b9757611b96611b40565b5b50919050565b5f611ba782611233565b91507fffffffffffffffffffffffffffffffffffffffffffffffffffffffffffffffff8203611bd957611bd86119ad565b5b600182019050919050565b5f82905092915050565b5f819050815f5260205f209050919050565b5f6020601f8301049050919050565b5f82821b905092915050565b5f60088302611c4a7fffffffffffffffffffffffffffffffffffffffffffffffffffffffffffffffff82611c0f565b611c548683611c0f565b95508019841693508086168417925050509392505050565b5f819050919050565b5f611c8f611c8a611c8584611233565b611c6c565b611233565b9050919050565b5f819050919050565b611ca883611c75565b611cbc611cb482611c96565b848454611c1b565b825550505050565b5f90565b611cd0611cc4565b611cdb818484611c9f565b505050565b5b81811015611cfe57611cf35f82611cc8565b600181019050611ce1565b5050565b601f821115611d4357611d1481611bee565b611d1d84611c00565b81016020851015611d2c578190505b611d40611d3885611c00565b830182611ce0565b50505b505050565b5f82821c905092915050565b5f611d635f1984600802611d48565b1980831691505092915050565b5f611d7b8383611d54565b9150826002028217905092915050565b611d958383611be4565b67ffffffffffffffff811115611dae57611dad61175b565b5b611db88254611b6d565b611dc3828285611d02565b5f601f831160018114611df0575f8415611dde578287013590505b611de88582611d70565b865550611e4f565b601f198416611dfe86611bee565b5f5b82811015611e2557848901358255600182019150602085019450602081019050611e00565b86831015611e425784890135611e3e601f891682611d54565b8355505b6001600288020188555050505b50505050505050565b7f4e487b71000000000000000000000000000000000000000000000000000000005f52601260045260245ffd5b5f611e8f82611233565b9150611e9a83611233565b925082611eaa57611ea9611e58565b5b828206905092915050565b5f611ebf82611233565b9150611eca83611233565b9250828201905080821115611ee257611ee16119ad565b5b92915050565b5f611ef282611233565b9150611efd83611233565b925082611f0d57611f0c611e58565b5b828204905092915050565b5f81905092915050565b7f6b697474790000000000000000000000000000000000000000000000000000005f82015250565b5f611f56600583611f18565b9150611f6182611f22565b600582019050919050565b5f611f7682611f4a565b9150819050919050565b5f611f8a826112cf565b611f948185611f18565b9350611fa48185602086016112e9565b80840191505092915050565b5f611fbb8284611f80565b915081905092915050565b5f611fd082611233565b9150611fdb83611233565b9250828203905081811115611ff357611ff26119ad565b5b92915050565b612002826112cf565b67ffffffffffffffff81111561201b5761201a61175b565b5b6120258254611b6d565b612030828285611d02565b5f60209050601f831160018114612061575f841561204f578287015190505b6120598582611d70565b8655506120c0565b601f19841661206f86611bee565b5f5b8281101561209657848901518255600182019150602085019450602081019050612071565b868310156120b357848901516120af601f891682611d54565b8355505b6001600288020188555050505b505050505050565b5f6060820190506120db5f830186611359565b81810360208301526120ed8185611321565b90506120fc6040830184611359565b94935050505056fea2646970667358221220b11e557f7f2026672ff5c8c22d06f680a26c497f9fe7409066d5933c8cc2df6f64736f6c63430008140033",
  "immutableReferences": {},
  "source": "pragma solidity >=0.4.22 <0.9.0;\n\nimport \"./ZombieFeeding.sol\";\n\ncontract ZombieHelper is ZombieFeeding {\n\n    uint levelUpFee = 0.001 ether;\n\n    modifier aboveLevel(uint _level, uint _zombieId) {\n        require(zombies[_zombieId].level >= _level);\n        _;\n    }\n\n    function withdraw() external onlyOwner {\n        address payable _owner = payable(owner());\n        _owner.transfer(address(this).balance);\n    }\n  \n    function setLevelUpFee(uint _fee) external onlyOwner {\n        levelUpFee = _fee;\n    }\n\n    function levelUp(uint _zombieId) external payable {\n        require(msg.value == levelUpFee);\n        zombies[_zombieId].level++;\n    }\n\n    function changeName(uint _zombieId, string calldata _newName) external aboveLevel(2, _zombieId) ownerOf(_zombieId) {\n        zombies[_zombieId].name = _newName;\n    }\n\n    function changeDna(uint _zombieId, uint _newDna) external aboveLevel(20, _zombieId) ownerOf(_zombieId) {\n        zombies[_zombieId].dna = _newDna;\n    }\n\n    function getZombiesByOwner(address _owner) external view returns(uint[] memory) {\n        uint[] memory result = new uint[](ownerZombieCount[_owner]);\n        uint counter = 0;\n\n        for (uint i = 0; i < zombies.length; i++) {\n            if(zombieToOwner[i] == _owner) {\n                result[counter] = i;\n                counter++;\n            }\n        }\n        return result;\n  }\n}",
  "sourcePath": "/home/ethdev/Desktop/CryptoZombiesReact/truffle/contracts/ZombieHelper.sol",
  "compiler": {
    "name": "solc",
    "version": "0.8.20+commit.a1b79de6.Emscripten.clang"
  },
  "schemaVersion": "3.4.15",
  "updatedAt": "2024-01-28T20:19:18.153Z",
  "devdoc": {
    "errors": {
      "OwnableInvalidOwner(address)": [
        {
          "details": "The owner is not a valid owner account. (eg. `address(0)`)"
        }
      ],
      "OwnableUnauthorizedAccount(address)": [
        {
          "details": "The caller account is not authorized to perform an operation."
        }
      ]
    },
    "kind": "dev",
    "methods": {
      "owner()": {
        "details": "Returns the address of the current owner."
      },
      "renounceOwnership()": {
        "details": "Leaves the contract without owner. It will not be possible to call `onlyOwner` functions. Can only be called by the current owner. NOTE: Renouncing ownership will leave the contract without an owner, thereby disabling any functionality that is only available to the owner."
      },
      "transferOwnership(address)": {
        "details": "Transfers ownership of the contract to a new account (`newOwner`). Can only be called by the current owner."
      }
    },
    "version": 1
  },
  "userdoc": {
    "kind": "user",
    "methods": {},
    "version": 1
  }
}