{
  "contractName": "ZombieFeeding",
  "abi": [
    {
      "inputs": [
        {
          "internalType": "address",
          "name": "owner",
          "type": "address"
        }
      ],
      "name": "OwnableInvalidOwner",
      "type": "error"
    },
    {
      "inputs": [
        {
          "internalType": "address",
          "name": "account",
          "type": "address"
        }
      ],
      "name": "OwnableUnauthorizedAccount",
      "type": "error"
    },
    {
      "anonymous": false,
      "inputs": [
        {
          "indexed": false,
          "internalType": "uint256",
          "name": "zombieId",
          "type": "uint256"
        },
        {
          "indexed": false,
          "internalType": "string",
          "name": "name",
          "type": "string"
        },
        {
          "indexed": false,
          "internalType": "uint256",
          "name": "dna",
          "type": "uint256"
        }
      ],
      "name": "NewZombie",
      "type": "event"
    },
    {
      "anonymous": false,
      "inputs": [
        {
          "indexed": true,
          "internalType": "address",
          "name": "previousOwner",
          "type": "address"
        },
        {
          "indexed": true,
          "internalType": "address",
          "name": "newOwner",
          "type": "address"
        }
      ],
      "name": "OwnershipTransferred",
      "type": "event"
    },
    {
      "inputs": [
        {
          "internalType": "string",
          "name": "_name",
          "type": "string"
        }
      ],
      "name": "createRandomZombie",
      "outputs": [],
      "stateMutability": "nonpayable",
      "type": "function"
    },
    {
      "inputs": [],
      "name": "owner",
      "outputs": [
        {
          "internalType": "address",
          "name": "",
          "type": "address"
        }
      ],
      "stateMutability": "view",
      "type": "function"
    },
    {
      "inputs": [],
      "name": "read",
      "outputs": [
        {
          "components": [
            {
              "internalType": "string",
              "name": "name",
              "type": "string"
            },
            {
              "internalType": "uint256",
              "name": "dna",
              "type": "uint256"
            },
            {
              "internalType": "uint32",
              "name": "level",
              "type": "uint32"
            },
            {
              "internalType": "uint32",
              "name": "readyTime",
              "type": "uint32"
            },
            {
              "internalType": "uint16",
              "name": "winCount",
              "type": "uint16"
            },
            {
              "internalType": "uint16",
              "name": "lossCount",
              "type": "uint16"
            }
          ],
          "internalType": "struct ZombieFactory.Zombie[]",
          "name": "",
          "type": "tuple[]"
        }
      ],
      "stateMutability": "view",
      "type": "function"
    },
    {
      "inputs": [],
      "name": "renounceOwnership",
      "outputs": [],
      "stateMutability": "nonpayable",
      "type": "function"
    },
    {
      "inputs": [
        {
          "internalType": "address",
          "name": "newOwner",
          "type": "address"
        }
      ],
      "name": "transferOwnership",
      "outputs": [],
      "stateMutability": "nonpayable",
      "type": "function"
    },
    {
      "inputs": [
        {
          "internalType": "uint256",
          "name": "",
          "type": "uint256"
        }
      ],
      "name": "zombieToOwner",
      "outputs": [
        {
          "internalType": "address",
          "name": "",
          "type": "address"
        }
      ],
      "stateMutability": "view",
      "type": "function"
    },
    {
      "inputs": [
        {
          "internalType": "uint256",
          "name": "",
          "type": "uint256"
        }
      ],
      "name": "zombies",
      "outputs": [
        {
          "internalType": "string",
          "name": "name",
          "type": "string"
        },
        {
          "internalType": "uint256",
          "name": "dna",
          "type": "uint256"
        },
        {
          "internalType": "uint32",
          "name": "level",
          "type": "uint32"
        },
        {
          "internalType": "uint32",
          "name": "readyTime",
          "type": "uint32"
        },
        {
          "internalType": "uint16",
          "name": "winCount",
          "type": "uint16"
        },
        {
          "internalType": "uint16",
          "name": "lossCount",
          "type": "uint16"
        }
      ],
      "stateMutability": "view",
      "type": "function"
    },
    {
      "inputs": [
        {
          "internalType": "address",
          "name": "_address",
          "type": "address"
        }
      ],
      "name": "setKittyContractAddress",
      "outputs": [],
      "stateMutability": "nonpayable",
      "type": "function"
    },
    {
      "inputs": [
        {
          "internalType": "uint256",
          "name": "_zombieId",
          "type": "uint256"
        },
        {
          "internalType": "uint256",
          "name": "_kittyId",
          "type": "uint256"
        }
      ],
      "name": "feedOnKitty",
      "outputs": [],
      "stateMutability": "nonpayable",
      "type": "function"
    }
  ],
  "bytecode": "0x60806040526010600155600154600a6200001a919062000304565b6002556201518060035534801562000030575f80fd5b50335f73ffffffffffffffffffffffffffffffffffffffff168173ffffffffffffffffffffffffffffffffffffffff1603620000a5575f6040517f1e4fbdf70000000000000000000000000000000000000000000000000000000081526004016200009c919062000397565b60405180910390fd5b620000b681620000bd60201b60201c565b50620003b2565b5f805f9054906101000a900473ffffffffffffffffffffffffffffffffffffffff169050815f806101000a81548173ffffffffffffffffffffffffffffffffffffffff021916908373ffffffffffffffffffffffffffffffffffffffff1602179055508173ffffffffffffffffffffffffffffffffffffffff168173ffffffffffffffffffffffffffffffffffffffff167f8be0079c531659141344cd1fd0a4f28419497f9722a3daafe3b4186f6b6457e060405160405180910390a35050565b7f4e487b71000000000000000000000000000000000000000000000000000000005f52601160045260245ffd5b5f8160011c9050919050565b5f808291508390505b60018511156200020857808604811115620001e057620001df6200017e565b5b6001851615620001f05780820291505b80810290506200020085620001ab565b9450620001c0565b94509492505050565b5f82620002225760019050620002f4565b8162000231575f9050620002f4565b81600181146200024a576002811462000255576200028b565b6001915050620002f4565b60ff8411156200026a57620002696200017e565b5b8360020a9150848211156200028457620002836200017e565b5b50620002f4565b5060208310610133831016604e8410600b8410161715620002c55782820a905083811115620002bf57620002be6200017e565b5b620002f4565b620002d48484846001620001b7565b92509050818404811115620002ee57620002ed6200017e565b5b81810290505b9392505050565b5f819050919050565b5f6200031082620002fb565b91506200031d83620002fb565b92506200034c7fffffffffffffffffffffffffffffffffffffffffffffffffffffffffffffffff848462000211565b905092915050565b5f73ffffffffffffffffffffffffffffffffffffffff82169050919050565b5f6200037f8262000354565b9050919050565b620003918162000373565b82525050565b5f602082019050620003ac5f83018462000386565b92915050565b61191f80620003c05f395ff3fe608060405234801561000f575f80fd5b5060043610610091575f3560e01c80635f4623f1116100645780635f4623f114610134578063715018a6146101505780637bff0a011461015a5780638da5cb5b14610176578063f2fde38b1461019457610091565b806317a7f4cc146100955780632052465e146100b1578063528b7b8f146100e657806357de26a414610116575b5f80fd5b6100af60048036038101906100aa9190610ccf565b6101b0565b005b6100cb60048036038101906100c69190610d0d565b6102ca565b6040516100dd96959493929190610e0b565b60405180910390f35b61010060048036038101906100fb9190610d0d565b6103d2565b60405161010d9190610eb0565b60405180910390f35b61011e610402565b60405161012b919061107f565b60405180910390f35b61014e600480360381019061014991906110c9565b610582565b005b6101586105cd565b005b610174600480360381019061016f9190611220565b6105e0565b005b61017e610642565b60405161018b9190610eb0565b60405180910390f35b6101ae60048036038101906101a991906110c9565b610669565b005b5f60075f9054906101000a900473ffffffffffffffffffffffffffffffffffffffff1673ffffffffffffffffffffffffffffffffffffffff1663e98b7f4d836040518263ffffffff1660e01b815260040161020b9190611267565b61014060405180830381865afa158015610227573d5f803e3d5ffd5b505050506040513d601f19601f8201168201806040525081019061024b91906112c9565b909192939495969798509091929394959697509091929394959650909192939495509091929394509091929350909192509091509050809150506102c583826040518060400160405280600581526020017f6b697474790000000000000000000000000000000000000000000000000000008152506106ed565b505050565b600481815481106102d9575f80fd5b905f5260205f2090600302015f91509050805f0180546102f8906113cf565b80601f0160208091040260200160405190810160405280929190818152602001828054610324906113cf565b801561036f5780601f106103465761010080835404028352916020019161036f565b820191905f5260205f20905b81548152906001019060200180831161035257829003601f168201915b505050505090806001015490806002015f9054906101000a900463ffffffff16908060020160049054906101000a900463ffffffff16908060020160089054906101000a900461ffff169080600201600a9054906101000a900461ffff16905086565b6005602052805f5260405f205f915054906101000a900473ffffffffffffffffffffffffffffffffffffffff1681565b60606004805480602002602001604051908101604052809291908181526020015f905b82821015610579578382905f5260205f2090600302016040518060c00160405290815f82018054610455906113cf565b80601f0160208091040260200160405190810160405280929190818152602001828054610481906113cf565b80156104cc5780601f106104a3576101008083540402835291602001916104cc565b820191905f5260205f20905b8154815290600101906020018083116104af57829003601f168201915b5050505050815260200160018201548152602001600282015f9054906101000a900463ffffffff1663ffffffff1663ffffffff1681526020016002820160049054906101000a900463ffffffff1663ffffffff1663ffffffff1681526020016002820160089054906101000a900461ffff1661ffff1661ffff16815260200160028201600a9054906101000a900461ffff1661ffff1661ffff168152505081526020019060010190610425565b50505050905090565b61058a610880565b8060075f6101000a81548173ffffffffffffffffffffffffffffffffffffffff021916908373ffffffffffffffffffffffffffffffffffffffff16021790555050565b6105d5610880565b6105de5f610907565b565b5f60065f3373ffffffffffffffffffffffffffffffffffffffff1673ffffffffffffffffffffffffffffffffffffffff1681526020019081526020015f205414610628575f80fd5b5f610632826109c8565b905061063e8282610a0b565b5050565b5f805f9054906101000a900473ffffffffffffffffffffffffffffffffffffffff16905090565b610671610880565b5f73ffffffffffffffffffffffffffffffffffffffff168173ffffffffffffffffffffffffffffffffffffffff16036106e1575f6040517f1e4fbdf70000000000000000000000000000000000000000000000000000000081526004016106d89190610eb0565b60405180910390fd5b6106ea81610907565b50565b823373ffffffffffffffffffffffffffffffffffffffff1660055f8381526020019081526020015f205f9054906101000a900473ffffffffffffffffffffffffffffffffffffffff1673ffffffffffffffffffffffffffffffffffffffff1614610755575f80fd5b5f6004858154811061076a576107696113ff565b5b905f5260205f209060030201905061078181610c2b565b610789575f80fd5b600254846107979190611459565b93505f60028583600101546107ac91906114b6565b6107b691906114e9565b90506040516020016107c79061156d565b60405160208183030381529060405280519060200120846040516020016107ee91906115b1565b60405160208183030381529060405280519060200120036108305760636064826108189190611459565b8261082391906115c7565b61082d91906114b6565b90505b61086f6040518060400160405280600681526020017f4e6f4e616d65000000000000000000000000000000000000000000000000000081525082610a0b565b61087882610c51565b505050505050565b610888610c84565b73ffffffffffffffffffffffffffffffffffffffff166108a6610642565b73ffffffffffffffffffffffffffffffffffffffff1614610905576108c9610c84565b6040517f118cdaa70000000000000000000000000000000000000000000000000000000081526004016108fc9190610eb0565b60405180910390fd5b565b5f805f9054906101000a900473ffffffffffffffffffffffffffffffffffffffff169050815f806101000a81548173ffffffffffffffffffffffffffffffffffffffff021916908373ffffffffffffffffffffffffffffffffffffffff1602179055508173ffffffffffffffffffffffffffffffffffffffff168173ffffffffffffffffffffffffffffffffffffffff167f8be0079c531659141344cd1fd0a4f28419497f9722a3daafe3b4186f6b6457e060405160405180910390a35050565b5f80826040516020016109db91906115b1565b604051602081830303815290604052805190602001205f1c905060025481610a039190611459565b915050919050565b60046040518060c00160405280848152602001838152602001600163ffffffff16815260200160035442610a3f91906114b6565b63ffffffff1681526020015f61ffff1681526020015f61ffff16815250908060018154018082558091505060019003905f5260205f2090600302015f909190919091505f820151815f019081610a959190611797565b50602082015181600101556040820151816002015f6101000a81548163ffffffff021916908363ffffffff16021790555060608201518160020160046101000a81548163ffffffff021916908363ffffffff16021790555060808201518160020160086101000a81548161ffff021916908361ffff16021790555060a082015181600201600a6101000a81548161ffff021916908361ffff16021790555050505f6001600480549050610b4891906115c7565b90503360055f8381526020019081526020015f205f6101000a81548173ffffffffffffffffffffffffffffffffffffffff021916908373ffffffffffffffffffffffffffffffffffffffff16021790555060065f3373ffffffffffffffffffffffffffffffffffffffff1673ffffffffffffffffffffffffffffffffffffffff1681526020019081526020015f205f815480929190610be690611866565b91905055507f88f026aacbbecc90c18411df4b1185fd8d9be2470f1962f192bf84a27d0704b7818484604051610c1e939291906118ad565b60405180910390a1505050565b5f428260020160049054906101000a900463ffffffff1663ffffffff1611159050919050565b60035442610c5f91906114b6565b8160020160046101000a81548163ffffffff021916908363ffffffff16021790555050565b5f33905090565b5f604051905090565b5f80fd5b5f80fd5b5f819050919050565b610cae81610c9c565b8114610cb8575f80fd5b50565b5f81359050610cc981610ca5565b92915050565b5f8060408385031215610ce557610ce4610c94565b5b5f610cf285828601610cbb565b9250506020610d0385828601610cbb565b9150509250929050565b5f60208284031215610d2257610d21610c94565b5b5f610d2f84828501610cbb565b91505092915050565b5f81519050919050565b5f82825260208201905092915050565b5f5b83811015610d6f578082015181840152602081019050610d54565b5f8484015250505050565b5f601f19601f8301169050919050565b5f610d9482610d38565b610d9e8185610d42565b9350610dae818560208601610d52565b610db781610d7a565b840191505092915050565b610dcb81610c9c565b82525050565b5f63ffffffff82169050919050565b610de981610dd1565b82525050565b5f61ffff82169050919050565b610e0581610def565b82525050565b5f60c0820190508181035f830152610e238189610d8a565b9050610e326020830188610dc2565b610e3f6040830187610de0565b610e4c6060830186610de0565b610e596080830185610dfc565b610e6660a0830184610dfc565b979650505050505050565b5f73ffffffffffffffffffffffffffffffffffffffff82169050919050565b5f610e9a82610e71565b9050919050565b610eaa81610e90565b82525050565b5f602082019050610ec35f830184610ea1565b92915050565b5f81519050919050565b5f82825260208201905092915050565b5f819050602082019050919050565b5f82825260208201905092915050565b5f610f0c82610d38565b610f168185610ef2565b9350610f26818560208601610d52565b610f2f81610d7a565b840191505092915050565b610f4381610c9c565b82525050565b610f5281610dd1565b82525050565b610f6181610def565b82525050565b5f60c083015f8301518482035f860152610f818282610f02565b9150506020830151610f966020860182610f3a565b506040830151610fa96040860182610f49565b506060830151610fbc6060860182610f49565b506080830151610fcf6080860182610f58565b5060a0830151610fe260a0860182610f58565b508091505092915050565b5f610ff88383610f67565b905092915050565b5f602082019050919050565b5f61101682610ec9565b6110208185610ed3565b93508360208202850161103285610ee3565b805f5b8581101561106d578484038952815161104e8582610fed565b945061105983611000565b925060208a01995050600181019050611035565b50829750879550505050505092915050565b5f6020820190508181035f830152611097818461100c565b905092915050565b6110a881610e90565b81146110b2575f80fd5b50565b5f813590506110c38161109f565b92915050565b5f602082840312156110de576110dd610c94565b5b5f6110eb848285016110b5565b91505092915050565b5f80fd5b5f80fd5b7f4e487b71000000000000000000000000000000000000000000000000000000005f52604160045260245ffd5b61113282610d7a565b810181811067ffffffffffffffff82111715611151576111506110fc565b5b80604052505050565b5f611163610c8b565b905061116f8282611129565b919050565b5f67ffffffffffffffff82111561118e5761118d6110fc565b5b61119782610d7a565b9050602081019050919050565b828183375f83830152505050565b5f6111c46111bf84611174565b61115a565b9050828152602081018484840111156111e0576111df6110f8565b5b6111eb8482856111a4565b509392505050565b5f82601f830112611207576112066110f4565b5b81356112178482602086016111b2565b91505092915050565b5f6020828403121561123557611234610c94565b5b5f82013567ffffffffffffffff81111561125257611251610c98565b5b61125e848285016111f3565b91505092915050565b5f60208201905061127a5f830184610dc2565b92915050565b5f8115159050919050565b61129481611280565b811461129e575f80fd5b50565b5f815190506112af8161128b565b92915050565b5f815190506112c381610ca5565b92915050565b5f805f805f805f805f806101408b8d0312156112e8576112e7610c94565b5b5f6112f58d828e016112a1565b9a505060206113068d828e016112a1565b99505060406113178d828e016112b5565b98505060606113288d828e016112b5565b97505060806113398d828e016112b5565b96505060a061134a8d828e016112b5565b95505060c061135b8d828e016112b5565b94505060e061136c8d828e016112b5565b93505061010061137e8d828e016112b5565b9250506101206113908d828e016112b5565b9150509295989b9194979a5092959850565b7f4e487b71000000000000000000000000000000000000000000000000000000005f52602260045260245ffd5b5f60028204905060018216806113e657607f821691505b6020821081036113f9576113f86113a2565b5b50919050565b7f4e487b71000000000000000000000000000000000000000000000000000000005f52603260045260245ffd5b7f4e487b71000000000000000000000000000000000000000000000000000000005f52601260045260245ffd5b5f61146382610c9c565b915061146e83610c9c565b92508261147e5761147d61142c565b5b828206905092915050565b7f4e487b71000000000000000000000000000000000000000000000000000000005f52601160045260245ffd5b5f6114c082610c9c565b91506114cb83610c9c565b92508282019050808211156114e3576114e2611489565b5b92915050565b5f6114f382610c9c565b91506114fe83610c9c565b92508261150e5761150d61142c565b5b828204905092915050565b5f81905092915050565b7f6b697474790000000000000000000000000000000000000000000000000000005f82015250565b5f611557600583611519565b915061156282611523565b600582019050919050565b5f6115778261154b565b9150819050919050565b5f61158b82610d38565b6115958185611519565b93506115a5818560208601610d52565b80840191505092915050565b5f6115bc8284611581565b915081905092915050565b5f6115d182610c9c565b91506115dc83610c9c565b92508282039050818111156115f4576115f3611489565b5b92915050565b5f819050815f5260205f209050919050565b5f6020601f8301049050919050565b5f82821b905092915050565b5f600883026116567fffffffffffffffffffffffffffffffffffffffffffffffffffffffffffffffff8261161b565b611660868361161b565b95508019841693508086168417925050509392505050565b5f819050919050565b5f61169b61169661169184610c9c565b611678565b610c9c565b9050919050565b5f819050919050565b6116b483611681565b6116c86116c0826116a2565b848454611627565b825550505050565b5f90565b6116dc6116d0565b6116e78184846116ab565b505050565b5b8181101561170a576116ff5f826116d4565b6001810190506116ed565b5050565b601f82111561174f57611720816115fa565b6117298461160c565b81016020851015611738578190505b61174c6117448561160c565b8301826116ec565b50505b505050565b5f82821c905092915050565b5f61176f5f1984600802611754565b1980831691505092915050565b5f6117878383611760565b9150826002028217905092915050565b6117a082610d38565b67ffffffffffffffff8111156117b9576117b86110fc565b5b6117c382546113cf565b6117ce82828561170e565b5f60209050601f8311600181146117ff575f84156117ed578287015190505b6117f7858261177c565b86555061185e565b601f19841661180d866115fa565b5f5b828110156118345784890151825560018201915060208501945060208101905061180f565b86831015611851578489015161184d601f891682611760565b8355505b6001600288020188555050505b505050505050565b5f61187082610c9c565b91507fffffffffffffffffffffffffffffffffffffffffffffffffffffffffffffffff82036118a2576118a1611489565b5b600182019050919050565b5f6060820190506118c05f830186610dc2565b81810360208301526118d28185610d8a565b90506118e16040830184610dc2565b94935050505056fea2646970667358221220abf6681b8bdd852db841ffda11344997bc8b31c9e84a4618bacd930e0af4f44264736f6c63430008140033",
  "immutableReferences": {},
  "source": "pragma solidity >=0.4.22 <0.9.0;\n\nimport \"./ZombieFactory.sol\";\n\ninterface KittyInterface {\n    function getKitty(uint256 _id) external view returns (\n        bool isGestating,\n        bool isReady,\n        uint256 cooldownIndex,\n        uint256 nextActionAt,\n        uint256 siringWithId,\n        uint256 birthTime,\n        uint256 matronId,\n        uint256 sireId,\n        uint256 generation,\n        uint256 genes\n    );\n}\n\ncontract ZombieFeeding is ZombieFactory {\n    KittyInterface kittyContract;\n\n    modifier ownerOf(uint _zombieId) {\n        require(zombieToOwner[_zombieId] == msg.sender);\n        _;\n    }\n\n    function setKittyContractAddress(address _address) external onlyOwner {\n        kittyContract = KittyInterface(_address);\n    }\n\n    function _triggerCooldown(Zombie storage _zombie) internal {\n        _zombie.readyTime = uint32(block.timestamp + cooldownTime);\n    }\n  \n    function _isReady(Zombie storage _zombie) internal view returns(bool) {\n        return (_zombie.readyTime <= block.timestamp);\n    }\n\n    function feedAndMultiply(uint _zombieId, uint _targetDna, string memory _species) internal ownerOf(_zombieId) {\n        Zombie storage myZombie = zombies[_zombieId];\n        require(_isReady(myZombie));\n        _targetDna = _targetDna % dnaModulus;\n        uint newDna = (myZombie.dna + _targetDna) / 2;\n        if (keccak256(abi.encodePacked(_species)) == keccak256(abi.encodePacked(\"kitty\"))) {\n            newDna = newDna - newDna % 100 + 99;\n        }\n        _createZombie(\"NoName\", newDna);\n        _triggerCooldown(myZombie);\n    }\n\n    function feedOnKitty(uint _zombieId, uint _kittyId) public {\n        uint kittyDna;\n        (,,,,,,,,,kittyDna) = kittyContract.getKitty(_kittyId);\n        feedAndMultiply(_zombieId, kittyDna, \"kitty\");\n  }\n}",
  "sourcePath": "/home/ethdev/Desktop/CryptoZombiesReact/truffle/contracts/ZombieFeeding.sol",
  "compiler": {
    "name": "solc",
    "version": "0.8.20+commit.a1b79de6.Emscripten.clang"
  },
  "schemaVersion": "3.4.15",
  "updatedAt": "2024-01-28T20:19:18.117Z",
  "devdoc": {
    "errors": {
      "OwnableInvalidOwner(address)": [
        {
          "details": "The owner is not a valid owner account. (eg. `address(0)`)"
        }
      ],
      "OwnableUnauthorizedAccount(address)": [
        {
          "details": "The caller account is not authorized to perform an operation."
        }
      ]
    },
    "kind": "dev",
    "methods": {
      "owner()": {
        "details": "Returns the address of the current owner."
      },
      "renounceOwnership()": {
        "details": "Leaves the contract without owner. It will not be possible to call `onlyOwner` functions. Can only be called by the current owner. NOTE: Renouncing ownership will leave the contract without an owner, thereby disabling any functionality that is only available to the owner."
      },
      "transferOwnership(address)": {
        "details": "Transfers ownership of the contract to a new account (`newOwner`). Can only be called by the current owner."
      }
    },
    "version": 1
  },
  "userdoc": {
    "kind": "user",
    "methods": {},
    "version": 1
  }
}