{
  "contractName": "ZombieFactory",
  "abi": [
    {
      "inputs": [],
      "stateMutability": "nonpayable",
      "type": "constructor"
    },
    {
      "inputs": [
        {
          "internalType": "address",
          "name": "owner",
          "type": "address"
        }
      ],
      "name": "OwnableInvalidOwner",
      "type": "error"
    },
    {
      "inputs": [
        {
          "internalType": "address",
          "name": "account",
          "type": "address"
        }
      ],
      "name": "OwnableUnauthorizedAccount",
      "type": "error"
    },
    {
      "anonymous": false,
      "inputs": [
        {
          "indexed": false,
          "internalType": "uint256",
          "name": "zombieId",
          "type": "uint256"
        },
        {
          "indexed": false,
          "internalType": "string",
          "name": "name",
          "type": "string"
        },
        {
          "indexed": false,
          "internalType": "uint256",
          "name": "dna",
          "type": "uint256"
        }
      ],
      "name": "NewZombie",
      "type": "event"
    },
    {
      "anonymous": false,
      "inputs": [
        {
          "indexed": true,
          "internalType": "address",
          "name": "previousOwner",
          "type": "address"
        },
        {
          "indexed": true,
          "internalType": "address",
          "name": "newOwner",
          "type": "address"
        }
      ],
      "name": "OwnershipTransferred",
      "type": "event"
    },
    {
      "inputs": [],
      "name": "owner",
      "outputs": [
        {
          "internalType": "address",
          "name": "",
          "type": "address"
        }
      ],
      "stateMutability": "view",
      "type": "function"
    },
    {
      "inputs": [],
      "name": "renounceOwnership",
      "outputs": [],
      "stateMutability": "nonpayable",
      "type": "function"
    },
    {
      "inputs": [
        {
          "internalType": "address",
          "name": "newOwner",
          "type": "address"
        }
      ],
      "name": "transferOwnership",
      "outputs": [],
      "stateMutability": "nonpayable",
      "type": "function"
    },
    {
      "inputs": [
        {
          "internalType": "uint256",
          "name": "",
          "type": "uint256"
        }
      ],
      "name": "zombieToOwner",
      "outputs": [
        {
          "internalType": "address",
          "name": "",
          "type": "address"
        }
      ],
      "stateMutability": "view",
      "type": "function"
    },
    {
      "inputs": [
        {
          "internalType": "uint256",
          "name": "",
          "type": "uint256"
        }
      ],
      "name": "zombies",
      "outputs": [
        {
          "internalType": "string",
          "name": "name",
          "type": "string"
        },
        {
          "internalType": "uint256",
          "name": "dna",
          "type": "uint256"
        },
        {
          "internalType": "uint32",
          "name": "level",
          "type": "uint32"
        },
        {
          "internalType": "uint32",
          "name": "readyTime",
          "type": "uint32"
        },
        {
          "internalType": "uint16",
          "name": "winCount",
          "type": "uint16"
        },
        {
          "internalType": "uint16",
          "name": "lossCount",
          "type": "uint16"
        }
      ],
      "stateMutability": "view",
      "type": "function"
    },
    {
      "inputs": [
        {
          "internalType": "string",
          "name": "_name",
          "type": "string"
        }
      ],
      "name": "createRandomZombie",
      "outputs": [],
      "stateMutability": "nonpayable",
      "type": "function"
    },
    {
      "inputs": [],
      "name": "read",
      "outputs": [
        {
          "components": [
            {
              "internalType": "string",
              "name": "name",
              "type": "string"
            },
            {
              "internalType": "uint256",
              "name": "dna",
              "type": "uint256"
            },
            {
              "internalType": "uint32",
              "name": "level",
              "type": "uint32"
            },
            {
              "internalType": "uint32",
              "name": "readyTime",
              "type": "uint32"
            },
            {
              "internalType": "uint16",
              "name": "winCount",
              "type": "uint16"
            },
            {
              "internalType": "uint16",
              "name": "lossCount",
              "type": "uint16"
            }
          ],
          "internalType": "struct ZombieFactory.Zombie[]",
          "name": "",
          "type": "tuple[]"
        }
      ],
      "stateMutability": "view",
      "type": "function"
    }
  ],
  "bytecode": "0x60806040526010600155600154600a6200001a919062000304565b6002556201518060035534801562000030575f80fd5b50335f73ffffffffffffffffffffffffffffffffffffffff168173ffffffffffffffffffffffffffffffffffffffff1603620000a5575f6040517f1e4fbdf70000000000000000000000000000000000000000000000000000000081526004016200009c919062000397565b60405180910390fd5b620000b681620000bd60201b60201c565b50620003b2565b5f805f9054906101000a900473ffffffffffffffffffffffffffffffffffffffff169050815f806101000a81548173ffffffffffffffffffffffffffffffffffffffff021916908373ffffffffffffffffffffffffffffffffffffffff1602179055508173ffffffffffffffffffffffffffffffffffffffff168173ffffffffffffffffffffffffffffffffffffffff167f8be0079c531659141344cd1fd0a4f28419497f9722a3daafe3b4186f6b6457e060405160405180910390a35050565b7f4e487b71000000000000000000000000000000000000000000000000000000005f52601160045260245ffd5b5f8160011c9050919050565b5f808291508390505b60018511156200020857808604811115620001e057620001df6200017e565b5b6001851615620001f05780820291505b80810290506200020085620001ab565b9450620001c0565b94509492505050565b5f82620002225760019050620002f4565b8162000231575f9050620002f4565b81600181146200024a576002811462000255576200028b565b6001915050620002f4565b60ff8411156200026a57620002696200017e565b5b8360020a9150848211156200028457620002836200017e565b5b50620002f4565b5060208310610133831016604e8410600b8410161715620002c55782820a905083811115620002bf57620002be6200017e565b5b620002f4565b620002d48484846001620001b7565b92509050818404811115620002ee57620002ed6200017e565b5b81810290505b9392505050565b5f819050919050565b5f6200031082620002fb565b91506200031d83620002fb565b92506200034c7fffffffffffffffffffffffffffffffffffffffffffffffffffffffffffffffff848462000211565b905092915050565b5f73ffffffffffffffffffffffffffffffffffffffff82169050919050565b5f6200037f8262000354565b9050919050565b620003918162000373565b82525050565b5f602082019050620003ac5f83018462000386565b92915050565b61134c80620003c05f395ff3fe608060405234801561000f575f80fd5b506004361061007b575f3560e01c8063715018a611610059578063715018a6146101025780637bff0a011461010c5780638da5cb5b14610128578063f2fde38b146101465761007b565b80632052465e1461007f578063528b7b8f146100b457806357de26a4146100e4575b5f80fd5b61009960048036038101906100949190610930565b610162565b6040516100ab96959493929190610a2e565b60405180910390f35b6100ce60048036038101906100c99190610930565b61026a565b6040516100db9190610ad3565b60405180910390f35b6100ec61029a565b6040516100f99190610ca2565b60405180910390f35b61010a61041a565b005b61012660048036038101906101219190610dee565b61042d565b005b61013061048f565b60405161013d9190610ad3565b60405180910390f35b610160600480360381019061015b9190610e5f565b6104b6565b005b60048181548110610171575f80fd5b905f5260205f2090600302015f91509050805f01805461019090610eb7565b80601f01602080910402602001604051908101604052809291908181526020018280546101bc90610eb7565b80156102075780601f106101de57610100808354040283529160200191610207565b820191905f5260205f20905b8154815290600101906020018083116101ea57829003601f168201915b505050505090806001015490806002015f9054906101000a900463ffffffff16908060020160049054906101000a900463ffffffff16908060020160089054906101000a900461ffff169080600201600a9054906101000a900461ffff16905086565b6005602052805f5260405f205f915054906101000a900473ffffffffffffffffffffffffffffffffffffffff1681565b60606004805480602002602001604051908101604052809291908181526020015f905b82821015610411578382905f5260205f2090600302016040518060c00160405290815f820180546102ed90610eb7565b80601f016020809104026020016040519081016040528092919081815260200182805461031990610eb7565b80156103645780601f1061033b57610100808354040283529160200191610364565b820191905f5260205f20905b81548152906001019060200180831161034757829003601f168201915b5050505050815260200160018201548152602001600282015f9054906101000a900463ffffffff1663ffffffff1663ffffffff1681526020016002820160049054906101000a900463ffffffff1663ffffffff1663ffffffff1681526020016002820160089054906101000a900461ffff1661ffff1661ffff16815260200160028201600a9054906101000a900461ffff1661ffff1661ffff1681525050815260200190600101906102bd565b50505050905090565b61042261053a565b61042b5f6105c1565b565b5f60065f3373ffffffffffffffffffffffffffffffffffffffff1673ffffffffffffffffffffffffffffffffffffffff1681526020019081526020015f205414610475575f80fd5b5f61047f82610682565b905061048b82826106c5565b5050565b5f805f9054906101000a900473ffffffffffffffffffffffffffffffffffffffff16905090565b6104be61053a565b5f73ffffffffffffffffffffffffffffffffffffffff168173ffffffffffffffffffffffffffffffffffffffff160361052e575f6040517f1e4fbdf70000000000000000000000000000000000000000000000000000000081526004016105259190610ad3565b60405180910390fd5b610537816105c1565b50565b6105426108e5565b73ffffffffffffffffffffffffffffffffffffffff1661056061048f565b73ffffffffffffffffffffffffffffffffffffffff16146105bf576105836108e5565b6040517f118cdaa70000000000000000000000000000000000000000000000000000000081526004016105b69190610ad3565b60405180910390fd5b565b5f805f9054906101000a900473ffffffffffffffffffffffffffffffffffffffff169050815f806101000a81548173ffffffffffffffffffffffffffffffffffffffff021916908373ffffffffffffffffffffffffffffffffffffffff1602179055508173ffffffffffffffffffffffffffffffffffffffff168173ffffffffffffffffffffffffffffffffffffffff167f8be0079c531659141344cd1fd0a4f28419497f9722a3daafe3b4186f6b6457e060405160405180910390a35050565b5f80826040516020016106959190610f21565b604051602081830303815290604052805190602001205f1c9050600254816106bd9190610f64565b915050919050565b60046040518060c00160405280848152602001838152602001600163ffffffff168152602001600354426106f99190610fc1565b63ffffffff1681526020015f61ffff1681526020015f61ffff16815250908060018154018082558091505060019003905f5260205f2090600302015f909190919091505f820151815f01908161074f9190611191565b50602082015181600101556040820151816002015f6101000a81548163ffffffff021916908363ffffffff16021790555060608201518160020160046101000a81548163ffffffff021916908363ffffffff16021790555060808201518160020160086101000a81548161ffff021916908361ffff16021790555060a082015181600201600a6101000a81548161ffff021916908361ffff16021790555050505f60016004805490506108029190611260565b90503360055f8381526020019081526020015f205f6101000a81548173ffffffffffffffffffffffffffffffffffffffff021916908373ffffffffffffffffffffffffffffffffffffffff16021790555060065f3373ffffffffffffffffffffffffffffffffffffffff1673ffffffffffffffffffffffffffffffffffffffff1681526020019081526020015f205f8154809291906108a090611293565b91905055507f88f026aacbbecc90c18411df4b1185fd8d9be2470f1962f192bf84a27d0704b78184846040516108d8939291906112da565b60405180910390a1505050565b5f33905090565b5f604051905090565b5f80fd5b5f80fd5b5f819050919050565b61090f816108fd565b8114610919575f80fd5b50565b5f8135905061092a81610906565b92915050565b5f60208284031215610945576109446108f5565b5b5f6109528482850161091c565b91505092915050565b5f81519050919050565b5f82825260208201905092915050565b5f5b83811015610992578082015181840152602081019050610977565b5f8484015250505050565b5f601f19601f8301169050919050565b5f6109b78261095b565b6109c18185610965565b93506109d1818560208601610975565b6109da8161099d565b840191505092915050565b6109ee816108fd565b82525050565b5f63ffffffff82169050919050565b610a0c816109f4565b82525050565b5f61ffff82169050919050565b610a2881610a12565b82525050565b5f60c0820190508181035f830152610a4681896109ad565b9050610a5560208301886109e5565b610a626040830187610a03565b610a6f6060830186610a03565b610a7c6080830185610a1f565b610a8960a0830184610a1f565b979650505050505050565b5f73ffffffffffffffffffffffffffffffffffffffff82169050919050565b5f610abd82610a94565b9050919050565b610acd81610ab3565b82525050565b5f602082019050610ae65f830184610ac4565b92915050565b5f81519050919050565b5f82825260208201905092915050565b5f819050602082019050919050565b5f82825260208201905092915050565b5f610b2f8261095b565b610b398185610b15565b9350610b49818560208601610975565b610b528161099d565b840191505092915050565b610b66816108fd565b82525050565b610b75816109f4565b82525050565b610b8481610a12565b82525050565b5f60c083015f8301518482035f860152610ba48282610b25565b9150506020830151610bb96020860182610b5d565b506040830151610bcc6040860182610b6c565b506060830151610bdf6060860182610b6c565b506080830151610bf26080860182610b7b565b5060a0830151610c0560a0860182610b7b565b508091505092915050565b5f610c1b8383610b8a565b905092915050565b5f602082019050919050565b5f610c3982610aec565b610c438185610af6565b935083602082028501610c5585610b06565b805f5b85811015610c905784840389528151610c718582610c10565b9450610c7c83610c23565b925060208a01995050600181019050610c58565b50829750879550505050505092915050565b5f6020820190508181035f830152610cba8184610c2f565b905092915050565b5f80fd5b5f80fd5b7f4e487b71000000000000000000000000000000000000000000000000000000005f52604160045260245ffd5b610d008261099d565b810181811067ffffffffffffffff82111715610d1f57610d1e610cca565b5b80604052505050565b5f610d316108ec565b9050610d3d8282610cf7565b919050565b5f67ffffffffffffffff821115610d5c57610d5b610cca565b5b610d658261099d565b9050602081019050919050565b828183375f83830152505050565b5f610d92610d8d84610d42565b610d28565b905082815260208101848484011115610dae57610dad610cc6565b5b610db9848285610d72565b509392505050565b5f82601f830112610dd557610dd4610cc2565b5b8135610de5848260208601610d80565b91505092915050565b5f60208284031215610e0357610e026108f5565b5b5f82013567ffffffffffffffff811115610e2057610e1f6108f9565b5b610e2c84828501610dc1565b91505092915050565b610e3e81610ab3565b8114610e48575f80fd5b50565b5f81359050610e5981610e35565b92915050565b5f60208284031215610e7457610e736108f5565b5b5f610e8184828501610e4b565b91505092915050565b7f4e487b71000000000000000000000000000000000000000000000000000000005f52602260045260245ffd5b5f6002820490506001821680610ece57607f821691505b602082108103610ee157610ee0610e8a565b5b50919050565b5f81905092915050565b5f610efb8261095b565b610f058185610ee7565b9350610f15818560208601610975565b80840191505092915050565b5f610f2c8284610ef1565b915081905092915050565b7f4e487b71000000000000000000000000000000000000000000000000000000005f52601260045260245ffd5b5f610f6e826108fd565b9150610f79836108fd565b925082610f8957610f88610f37565b5b828206905092915050565b7f4e487b71000000000000000000000000000000000000000000000000000000005f52601160045260245ffd5b5f610fcb826108fd565b9150610fd6836108fd565b9250828201905080821115610fee57610fed610f94565b5b92915050565b5f819050815f5260205f209050919050565b5f6020601f8301049050919050565b5f82821b905092915050565b5f600883026110507fffffffffffffffffffffffffffffffffffffffffffffffffffffffffffffffff82611015565b61105a8683611015565b95508019841693508086168417925050509392505050565b5f819050919050565b5f61109561109061108b846108fd565b611072565b6108fd565b9050919050565b5f819050919050565b6110ae8361107b565b6110c26110ba8261109c565b848454611021565b825550505050565b5f90565b6110d66110ca565b6110e18184846110a5565b505050565b5b81811015611104576110f95f826110ce565b6001810190506110e7565b5050565b601f8211156111495761111a81610ff4565b61112384611006565b81016020851015611132578190505b61114661113e85611006565b8301826110e6565b50505b505050565b5f82821c905092915050565b5f6111695f198460080261114e565b1980831691505092915050565b5f611181838361115a565b9150826002028217905092915050565b61119a8261095b565b67ffffffffffffffff8111156111b3576111b2610cca565b5b6111bd8254610eb7565b6111c8828285611108565b5f60209050601f8311600181146111f9575f84156111e7578287015190505b6111f18582611176565b865550611258565b601f19841661120786610ff4565b5f5b8281101561122e57848901518255600182019150602085019450602081019050611209565b8683101561124b5784890151611247601f89168261115a565b8355505b6001600288020188555050505b505050505050565b5f61126a826108fd565b9150611275836108fd565b925082820390508181111561128d5761128c610f94565b5b92915050565b5f61129d826108fd565b91507fffffffffffffffffffffffffffffffffffffffffffffffffffffffffffffffff82036112cf576112ce610f94565b5b600182019050919050565b5f6060820190506112ed5f8301866109e5565b81810360208301526112ff81856109ad565b905061130e60408301846109e5565b94935050505056fea2646970667358221220c5b04dd992b5b8cc2bcf162ace51c7df4b0140aff5a2c39c3c9085f8bcbfba5964736f6c63430008140033",
  "immutableReferences": {},
  "source": "pragma solidity >=0.4.22 <0.9.0;\n\nimport \"@openzeppelin/contracts/access/Ownable.sol\";\n\ncontract ZombieFactory is Ownable {\n\n    constructor() Ownable(msg.sender) {\n    }\n    \n    event NewZombie(uint zombieId, string name, uint dna);\n\n    uint dnaDigits = 16;\n    uint dnaModulus = 10 ** dnaDigits;\n    uint cooldownTime = 1 days;\n\n    struct Zombie {\n        string name;\n        uint dna;\n        uint32 level;\n        uint32 readyTime;\n        uint16 winCount;\n        uint16 lossCount;\n    }\n\n    Zombie[] public zombies;\n\n    mapping (uint => address) public zombieToOwner;\n    mapping (address => uint) ownerZombieCount;\n\n    function _createZombie(string memory _name, uint _dna) internal {\n        zombies.push(Zombie(_name, _dna, 1, uint32(block.timestamp + cooldownTime), 0, 0));\n        uint id = zombies.length - 1;\n        zombieToOwner[id] = msg.sender;\n        ownerZombieCount[msg.sender]++;\n        emit NewZombie(id, _name, _dna);\n    }\n\n    function _generateRandomDna(string memory _str) private view returns (uint) {\n        uint rand = uint(keccak256(abi.encodePacked(_str)));\n        return rand % dnaModulus;\n    }\n\n    function createRandomZombie(string memory _name) public {\n        require(ownerZombieCount[msg.sender] == 0);\n        uint randDna = _generateRandomDna(_name);\n        _createZombie(_name, randDna);\n    }\n\n    function read() public view returns (Zombie[] memory) {\n        return zombies;\n    }\n}\n",
  "sourcePath": "/home/ethdev/Desktop/CryptoZombiesReact/truffle/contracts/ZombieFactory.sol",
  "compiler": {
    "name": "solc",
    "version": "0.8.20+commit.a1b79de6.Emscripten.clang"
  },
  "schemaVersion": "3.4.15",
  "updatedAt": "2024-01-28T20:19:18.096Z",
  "devdoc": {
    "errors": {
      "OwnableInvalidOwner(address)": [
        {
          "details": "The owner is not a valid owner account. (eg. `address(0)`)"
        }
      ],
      "OwnableUnauthorizedAccount(address)": [
        {
          "details": "The caller account is not authorized to perform an operation."
        }
      ]
    },
    "kind": "dev",
    "methods": {
      "owner()": {
        "details": "Returns the address of the current owner."
      },
      "renounceOwnership()": {
        "details": "Leaves the contract without owner. It will not be possible to call `onlyOwner` functions. Can only be called by the current owner. NOTE: Renouncing ownership will leave the contract without an owner, thereby disabling any functionality that is only available to the owner."
      },
      "transferOwnership(address)": {
        "details": "Transfers ownership of the contract to a new account (`newOwner`). Can only be called by the current owner."
      }
    },
    "version": 1
  },
  "userdoc": {
    "kind": "user",
    "methods": {},
    "version": 1
  }
}