{
  "contractName": "ZombieOwnership",
  "abi": [
    {
      "inputs": [
        {
          "internalType": "address",
          "name": "owner",
          "type": "address"
        }
      ],
      "name": "OwnableInvalidOwner",
      "type": "error"
    },
    {
      "inputs": [
        {
          "internalType": "address",
          "name": "account",
          "type": "address"
        }
      ],
      "name": "OwnableUnauthorizedAccount",
      "type": "error"
    },
    {
      "anonymous": false,
      "inputs": [
        {
          "indexed": false,
          "internalType": "uint256",
          "name": "zombieId",
          "type": "uint256"
        },
        {
          "indexed": false,
          "internalType": "string",
          "name": "name",
          "type": "string"
        },
        {
          "indexed": false,
          "internalType": "uint256",
          "name": "dna",
          "type": "uint256"
        }
      ],
      "name": "NewZombie",
      "type": "event"
    },
    {
      "anonymous": false,
      "inputs": [
        {
          "indexed": true,
          "internalType": "address",
          "name": "previousOwner",
          "type": "address"
        },
        {
          "indexed": true,
          "internalType": "address",
          "name": "newOwner",
          "type": "address"
        }
      ],
      "name": "OwnershipTransferred",
      "type": "event"
    },
    {
      "inputs": [
        {
          "internalType": "uint256",
          "name": "_zombieId",
          "type": "uint256"
        },
        {
          "internalType": "uint256",
          "name": "_targetId",
          "type": "uint256"
        }
      ],
      "name": "attack",
      "outputs": [],
      "stateMutability": "nonpayable",
      "type": "function"
    },
    {
      "inputs": [
        {
          "internalType": "uint256",
          "name": "_zombieId",
          "type": "uint256"
        },
        {
          "internalType": "uint256",
          "name": "_newDna",
          "type": "uint256"
        }
      ],
      "name": "changeDna",
      "outputs": [],
      "stateMutability": "nonpayable",
      "type": "function"
    },
    {
      "inputs": [
        {
          "internalType": "uint256",
          "name": "_zombieId",
          "type": "uint256"
        },
        {
          "internalType": "string",
          "name": "_newName",
          "type": "string"
        }
      ],
      "name": "changeName",
      "outputs": [],
      "stateMutability": "nonpayable",
      "type": "function"
    },
    {
      "inputs": [
        {
          "internalType": "string",
          "name": "_name",
          "type": "string"
        }
      ],
      "name": "createRandomZombie",
      "outputs": [],
      "stateMutability": "nonpayable",
      "type": "function"
    },
    {
      "inputs": [
        {
          "internalType": "uint256",
          "name": "_zombieId",
          "type": "uint256"
        },
        {
          "internalType": "uint256",
          "name": "_kittyId",
          "type": "uint256"
        }
      ],
      "name": "feedOnKitty",
      "outputs": [],
      "stateMutability": "nonpayable",
      "type": "function"
    },
    {
      "inputs": [
        {
          "internalType": "address",
          "name": "_owner",
          "type": "address"
        }
      ],
      "name": "getZombiesByOwner",
      "outputs": [
        {
          "internalType": "uint256[]",
          "name": "",
          "type": "uint256[]"
        }
      ],
      "stateMutability": "view",
      "type": "function"
    },
    {
      "inputs": [
        {
          "internalType": "uint256",
          "name": "_zombieId",
          "type": "uint256"
        }
      ],
      "name": "levelUp",
      "outputs": [],
      "stateMutability": "payable",
      "type": "function"
    },
    {
      "inputs": [],
      "name": "owner",
      "outputs": [
        {
          "internalType": "address",
          "name": "",
          "type": "address"
        }
      ],
      "stateMutability": "view",
      "type": "function"
    },
    {
      "inputs": [],
      "name": "read",
      "outputs": [
        {
          "components": [
            {
              "internalType": "string",
              "name": "name",
              "type": "string"
            },
            {
              "internalType": "uint256",
              "name": "dna",
              "type": "uint256"
            },
            {
              "internalType": "uint32",
              "name": "level",
              "type": "uint32"
            },
            {
              "internalType": "uint32",
              "name": "readyTime",
              "type": "uint32"
            },
            {
              "internalType": "uint16",
              "name": "winCount",
              "type": "uint16"
            },
            {
              "internalType": "uint16",
              "name": "lossCount",
              "type": "uint16"
            }
          ],
          "internalType": "struct ZombieFactory.Zombie[]",
          "name": "",
          "type": "tuple[]"
        }
      ],
      "stateMutability": "view",
      "type": "function"
    },
    {
      "inputs": [],
      "name": "renounceOwnership",
      "outputs": [],
      "stateMutability": "nonpayable",
      "type": "function"
    },
    {
      "inputs": [
        {
          "internalType": "address",
          "name": "_address",
          "type": "address"
        }
      ],
      "name": "setKittyContractAddress",
      "outputs": [],
      "stateMutability": "nonpayable",
      "type": "function"
    },
    {
      "inputs": [
        {
          "internalType": "uint256",
          "name": "_fee",
          "type": "uint256"
        }
      ],
      "name": "setLevelUpFee",
      "outputs": [],
      "stateMutability": "nonpayable",
      "type": "function"
    },
    {
      "inputs": [
        {
          "internalType": "address",
          "name": "newOwner",
          "type": "address"
        }
      ],
      "name": "transferOwnership",
      "outputs": [],
      "stateMutability": "nonpayable",
      "type": "function"
    },
    {
      "inputs": [],
      "name": "withdraw",
      "outputs": [],
      "stateMutability": "nonpayable",
      "type": "function"
    },
    {
      "inputs": [
        {
          "internalType": "uint256",
          "name": "",
          "type": "uint256"
        }
      ],
      "name": "zombieToOwner",
      "outputs": [
        {
          "internalType": "address",
          "name": "",
          "type": "address"
        }
      ],
      "stateMutability": "view",
      "type": "function"
    },
    {
      "inputs": [
        {
          "internalType": "uint256",
          "name": "",
          "type": "uint256"
        }
      ],
      "name": "zombies",
      "outputs": [
        {
          "internalType": "string",
          "name": "name",
          "type": "string"
        },
        {
          "internalType": "uint256",
          "name": "dna",
          "type": "uint256"
        },
        {
          "internalType": "uint32",
          "name": "level",
          "type": "uint32"
        },
        {
          "internalType": "uint32",
          "name": "readyTime",
          "type": "uint32"
        },
        {
          "internalType": "uint16",
          "name": "winCount",
          "type": "uint16"
        },
        {
          "internalType": "uint16",
          "name": "lossCount",
          "type": "uint16"
        }
      ],
      "stateMutability": "view",
      "type": "function"
    }
  ],
  "bytecode": "0x60806040526010600155600154600a6200001a919062000326565b6002556201518060035566038d7ea4c6800060085560006009556046600a553480156200004657600080fd5b5033600073ffffffffffffffffffffffffffffffffffffffff168173ffffffffffffffffffffffffffffffffffffffff1603620000bd5760006040517f1e4fbdf7000000000000000000000000000000000000000000000000000000008152600401620000b49190620003bc565b60405180910390fd5b620000ce81620000d560201b60201c565b50620003d9565b60008060009054906101000a900473ffffffffffffffffffffffffffffffffffffffff169050816000806101000a81548173ffffffffffffffffffffffffffffffffffffffff021916908373ffffffffffffffffffffffffffffffffffffffff1602179055508173ffffffffffffffffffffffffffffffffffffffff168173ffffffffffffffffffffffffffffffffffffffff167f8be0079c531659141344cd1fd0a4f28419497f9722a3daafe3b4186f6b6457e060405160405180910390a35050565b7f4e487b7100000000000000000000000000000000000000000000000000000000600052601160045260246000fd5b60008160011c9050919050565b6000808291508390505b60018511156200022757808604811115620001ff57620001fe62000199565b5b60018516156200020f5780820291505b80810290506200021f85620001c8565b9450620001df565b94509492505050565b60008262000242576001905062000315565b8162000252576000905062000315565b81600181146200026b57600281146200027657620002ac565b600191505062000315565b60ff8411156200028b576200028a62000199565b5b8360020a915084821115620002a557620002a462000199565b5b5062000315565b5060208310610133831016604e8410600b8410161715620002e65782820a905083811115620002e057620002df62000199565b5b62000315565b620002f58484846001620001d5565b925090508184048111156200030f576200030e62000199565b5b81810290505b9392505050565b6000819050919050565b600062000333826200031c565b915062000340836200031c565b92506200036f7fffffffffffffffffffffffffffffffffffffffffffffffffffffffffffffffff848462000230565b905092915050565b600073ffffffffffffffffffffffffffffffffffffffff82169050919050565b6000620003a48262000377565b9050919050565b620003b68162000397565b82525050565b6000602082019050620003d36000830184620003ab565b92915050565b6125e680620003e96000396000f3fe6080604052600436106100f35760003560e01c80635faf28801161008a578063c39cbef111610059578063c39cbef1146102f8578063ccf670f814610321578063e1fa76381461034a578063f2fde38b14610373576100f3565b80635faf288014610264578063715018a61461028d5780637bff0a01146102a45780638da5cb5b146102cd576100f3565b80634412e104116100c65780634412e10414610196578063528b7b8f146101d357806357de26a4146102105780635f4623f11461023b576100f3565b80630ce90ec2146100f857806317a7f4cc146101145780632052465e1461013d5780633ccfd60b1461017f575b600080fd5b610112600480360381019061010d91906115cb565b61039c565b005b34801561012057600080fd5b5061013b600480360381019061013691906115f8565b610411565b005b34801561014957600080fd5b50610164600480360381019061015f91906115cb565b61052f565b60405161017696959493929190611713565b60405180910390f35b34801561018b57600080fd5b5061019461063f565b005b3480156101a257600080fd5b506101bd60048036038101906101b891906117d9565b61069d565b6040516101ca91906118c4565b60405180910390f35b3480156101df57600080fd5b506101fa60048036038101906101f591906115cb565b6107e9565b60405161020791906118f5565b60405180910390f35b34801561021c57600080fd5b5061022561081c565b6040516102329190611ac3565b60405180910390f35b34801561024757600080fd5b50610262600480360381019061025d91906117d9565b6109a3565b005b34801561027057600080fd5b5061028b600480360381019061028691906115f8565b6109ef565b005b34801561029957600080fd5b506102a2610ad7565b005b3480156102b057600080fd5b506102cb60048036038101906102c69190611c1a565b610aeb565b005b3480156102d957600080fd5b506102e2610b52565b6040516102ef91906118f5565b60405180910390f35b34801561030457600080fd5b5061031f600480360381019061031a9190611cc3565b610b7b565b005b34801561032d57600080fd5b50610348600480360381019061034391906115cb565b610c6f565b005b34801561035657600080fd5b50610371600480360381019061036c91906115f8565b610c81565b005b34801561037f57600080fd5b5061039a600480360381019061039591906117d9565b610ee2565b005b60085434146103aa57600080fd5b600481815481106103be576103bd611d23565b5b9060005260206000209060030201600201600081819054906101000a900463ffffffff16809291906103ef90611d81565b91906101000a81548163ffffffff021916908363ffffffff1602179055505050565b6000600760009054906101000a900473ffffffffffffffffffffffffffffffffffffffff1673ffffffffffffffffffffffffffffffffffffffff1663e98b7f4d836040518263ffffffff1660e01b815260040161046e9190611dad565b61014060405180830381865afa15801561048c573d6000803e3d6000fd5b505050506040513d601f19601f820116820180604052508101906104b09190611e15565b9091929394959697985090919293949596975090919293949596509091929394955090919293945090919293509091925090915090508091505061052a83826040518060400160405280600581526020017f6b69747479000000000000000000000000000000000000000000000000000000815250610f68565b505050565b6004818154811061053f57600080fd5b906000526020600020906003020160009150905080600001805461056290611f23565b80601f016020809104026020016040519081016040528092919081815260200182805461058e90611f23565b80156105db5780601f106105b0576101008083540402835291602001916105db565b820191906000526020600020905b8154815290600101906020018083116105be57829003601f168201915b5050505050908060010154908060020160009054906101000a900463ffffffff16908060020160049054906101000a900463ffffffff16908060020160089054906101000a900461ffff169080600201600a9054906101000a900461ffff16905086565b610647611104565b6000610651610b52565b90508073ffffffffffffffffffffffffffffffffffffffff166108fc479081150290604051600060405180830381858888f19350505050158015610699573d6000803e3d6000fd5b5050565b60606000600660008473ffffffffffffffffffffffffffffffffffffffff1673ffffffffffffffffffffffffffffffffffffffff1681526020019081526020016000205467ffffffffffffffff8111156106fa576106f9611aef565b5b6040519080825280602002602001820160405280156107285781602001602082028036833780820191505090505b5090506000805b6004805490508110156107de578473ffffffffffffffffffffffffffffffffffffffff166005600083815260200190815260200160002060009054906101000a900473ffffffffffffffffffffffffffffffffffffffff1673ffffffffffffffffffffffffffffffffffffffff16036107d157808383815181106107b6576107b5611d23565b5b60200260200101818152505081806107cd90611f54565b9250505b808060010191505061072f565b508192505050919050565b60056020528060005260406000206000915054906101000a900473ffffffffffffffffffffffffffffffffffffffff1681565b60606004805480602002602001604051908101604052809291908181526020016000905b8282101561099a57838290600052602060002090600302016040518060c001604052908160008201805461087390611f23565b80601f016020809104026020016040519081016040528092919081815260200182805461089f90611f23565b80156108ec5780601f106108c1576101008083540402835291602001916108ec565b820191906000526020600020905b8154815290600101906020018083116108cf57829003601f168201915b50505050508152602001600182015481526020016002820160009054906101000a900463ffffffff1663ffffffff1663ffffffff1681526020016002820160049054906101000a900463ffffffff1663ffffffff1663ffffffff1681526020016002820160089054906101000a900461ffff1661ffff1661ffff16815260200160028201600a9054906101000a900461ffff1661ffff1661ffff168152505081526020019060010190610840565b50505050905090565b6109ab611104565b80600760006101000a81548173ffffffffffffffffffffffffffffffffffffffff021916908373ffffffffffffffffffffffffffffffffffffffff16021790555050565b6014828160048281548110610a0757610a06611d23565b5b906000526020600020906003020160020160009054906101000a900463ffffffff1663ffffffff161015610a3a57600080fd5b833373ffffffffffffffffffffffffffffffffffffffff166005600083815260200190815260200160002060009054906101000a900473ffffffffffffffffffffffffffffffffffffffff1673ffffffffffffffffffffffffffffffffffffffff1614610aa657600080fd5b8360048681548110610abb57610aba611d23565b5b9060005260206000209060030201600101819055505050505050565b610adf611104565b610ae9600061118b565b565b6000600660003373ffffffffffffffffffffffffffffffffffffffff1673ffffffffffffffffffffffffffffffffffffffff1681526020019081526020016000205414610b3757600080fd5b6000610b428261124f565b9050610b4e8282611294565b5050565b60008060009054906101000a900473ffffffffffffffffffffffffffffffffffffffff16905090565b6002838160048281548110610b9357610b92611d23565b5b906000526020600020906003020160020160009054906101000a900463ffffffff1663ffffffff161015610bc657600080fd5b843373ffffffffffffffffffffffffffffffffffffffff166005600083815260200190815260200160002060009054906101000a900473ffffffffffffffffffffffffffffffffffffffff1673ffffffffffffffffffffffffffffffffffffffff1614610c3257600080fd5b848460048881548110610c4857610c47611d23565b5b90600052602060002090600302016000019182610c66929190612153565b50505050505050565b610c77611104565b8060088190555050565b813373ffffffffffffffffffffffffffffffffffffffff166005600083815260200190815260200160002060009054906101000a900473ffffffffffffffffffffffffffffffffffffffff1673ffffffffffffffffffffffffffffffffffffffff1614610ced57600080fd5b600060048481548110610d0357610d02611d23565b5b90600052602060002090600302019050600060048481548110610d2957610d28611d23565b5b906000526020600020906003020190506000610d4560646114c3565b9050600a548111610e565782600201600881819054906101000a900461ffff1680929190610d7290612223565b91906101000a81548161ffff021916908361ffff1602179055505082600201600081819054906101000a900463ffffffff1680929190610db190611d81565b91906101000a81548163ffffffff021916908363ffffffff1602179055505081600201600a81819054906101000a900461ffff1680929190610df290612223565b91906101000a81548161ffff021916908361ffff16021790555050610e518683600101546040518060400160405280600681526020017f7a6f6d6269650000000000000000000000000000000000000000000000000000815250610f68565b610eda565b82600201600a81819054906101000a900461ffff1680929190610e7890612223565b91906101000a81548161ffff021916908361ffff1602179055505081600201600881819054906101000a900461ffff1680929190610eb590612223565b91906101000a81548161ffff021916908361ffff16021790555050610ed98361151f565b5b505050505050565b610eea611104565b600073ffffffffffffffffffffffffffffffffffffffff168173ffffffffffffffffffffffffffffffffffffffff1603610f5c5760006040517f1e4fbdf7000000000000000000000000000000000000000000000000000000008152600401610f5391906118f5565b60405180910390fd5b610f658161118b565b50565b823373ffffffffffffffffffffffffffffffffffffffff166005600083815260200190815260200160002060009054906101000a900473ffffffffffffffffffffffffffffffffffffffff1673ffffffffffffffffffffffffffffffffffffffff1614610fd457600080fd5b600060048581548110610fea57610fe9611d23565b5b9060005260206000209060030201905061100381611552565b61100c57600080fd5b6002548461101a919061227c565b93506000600285836001015461103091906122ad565b61103a91906122e1565b905060405160200161104b90612369565b604051602081830303815290604052805190602001208460405160200161107291906123af565b60405160208183030381529060405280519060200120036110b457606360648261109c919061227c565b826110a791906123c6565b6110b191906122ad565b90505b6110f36040518060400160405280600681526020017f4e6f4e616d65000000000000000000000000000000000000000000000000000081525082611294565b6110fc8261151f565b505050505050565b61110c611579565b73ffffffffffffffffffffffffffffffffffffffff1661112a610b52565b73ffffffffffffffffffffffffffffffffffffffff16146111895761114d611579565b6040517f118cdaa700000000000000000000000000000000000000000000000000000000815260040161118091906118f5565b60405180910390fd5b565b60008060009054906101000a900473ffffffffffffffffffffffffffffffffffffffff169050816000806101000a81548173ffffffffffffffffffffffffffffffffffffffff021916908373ffffffffffffffffffffffffffffffffffffffff1602179055508173ffffffffffffffffffffffffffffffffffffffff168173ffffffffffffffffffffffffffffffffffffffff167f8be0079c531659141344cd1fd0a4f28419497f9722a3daafe3b4186f6b6457e060405160405180910390a35050565b6000808260405160200161126391906123af565b6040516020818303038152906040528051906020012060001c90506002548161128c919061227c565b915050919050565b60046040518060c00160405280848152602001838152602001600163ffffffff168152602001600354426112c891906122ad565b63ffffffff168152602001600061ffff168152602001600061ffff168152509080600181540180825580915050600190039060005260206000209060030201600090919091909150600082015181600001908161132591906123fa565b506020820151816001015560408201518160020160006101000a81548163ffffffff021916908363ffffffff16021790555060608201518160020160046101000a81548163ffffffff021916908363ffffffff16021790555060808201518160020160086101000a81548161ffff021916908361ffff16021790555060a082015181600201600a6101000a81548161ffff021916908361ffff1602179055505050600060016004805490506113da91906123c6565b9050336005600083815260200190815260200160002060006101000a81548173ffffffffffffffffffffffffffffffffffffffff021916908373ffffffffffffffffffffffffffffffffffffffff160217905550600660003373ffffffffffffffffffffffffffffffffffffffff1673ffffffffffffffffffffffffffffffffffffffff168152602001908152602001600020600081548092919061147e90611f54565b91905055507f88f026aacbbecc90c18411df4b1185fd8d9be2470f1962f192bf84a27d0704b78184846040516114b6939291906124cc565b60405180910390a1505050565b6000600960008154809291906114d890611f54565b91905055508142336009546040516020016114f593929190612573565b6040516020818303038152906040528051906020012060001c611518919061227c565b9050919050565b6003544261152d91906122ad565b8160020160046101000a81548163ffffffff021916908363ffffffff16021790555050565b6000428260020160049054906101000a900463ffffffff1663ffffffff1611159050919050565b600033905090565b6000604051905090565b600080fd5b600080fd5b6000819050919050565b6115a881611595565b81146115b357600080fd5b50565b6000813590506115c58161159f565b92915050565b6000602082840312156115e1576115e061158b565b5b60006115ef848285016115b6565b91505092915050565b6000806040838503121561160f5761160e61158b565b5b600061161d858286016115b6565b925050602061162e858286016115b6565b9150509250929050565b600081519050919050565b600082825260208201905092915050565b60005b83811015611672578082015181840152602081019050611657565b60008484015250505050565b6000601f19601f8301169050919050565b600061169a82611638565b6116a48185611643565b93506116b4818560208601611654565b6116bd8161167e565b840191505092915050565b6116d181611595565b82525050565b600063ffffffff82169050919050565b6116f0816116d7565b82525050565b600061ffff82169050919050565b61170d816116f6565b82525050565b600060c082019050818103600083015261172d818961168f565b905061173c60208301886116c8565b61174960408301876116e7565b61175660608301866116e7565b6117636080830185611704565b61177060a0830184611704565b979650505050505050565b600073ffffffffffffffffffffffffffffffffffffffff82169050919050565b60006117a68261177b565b9050919050565b6117b68161179b565b81146117c157600080fd5b50565b6000813590506117d3816117ad565b92915050565b6000602082840312156117ef576117ee61158b565b5b60006117fd848285016117c4565b91505092915050565b600081519050919050565b600082825260208201905092915050565b6000819050602082019050919050565b61183b81611595565b82525050565b600061184d8383611832565b60208301905092915050565b6000602082019050919050565b600061187182611806565b61187b8185611811565b935061188683611822565b8060005b838110156118b757815161189e8882611841565b97506118a983611859565b92505060018101905061188a565b5085935050505092915050565b600060208201905081810360008301526118de8184611866565b905092915050565b6118ef8161179b565b82525050565b600060208201905061190a60008301846118e6565b92915050565b600081519050919050565b600082825260208201905092915050565b6000819050602082019050919050565b600082825260208201905092915050565b600061195882611638565b611962818561193c565b9350611972818560208601611654565b61197b8161167e565b840191505092915050565b61198f816116d7565b82525050565b61199e816116f6565b82525050565b600060c08301600083015184820360008601526119c1828261194d565b91505060208301516119d66020860182611832565b5060408301516119e96040860182611986565b5060608301516119fc6060860182611986565b506080830151611a0f6080860182611995565b5060a0830151611a2260a0860182611995565b508091505092915050565b6000611a3983836119a4565b905092915050565b6000602082019050919050565b6000611a5982611910565b611a63818561191b565b935083602082028501611a758561192c565b8060005b85811015611ab15784840389528151611a928582611a2d565b9450611a9d83611a41565b925060208a01995050600181019050611a79565b50829750879550505050505092915050565b60006020820190508181036000830152611add8184611a4e565b905092915050565b600080fd5b600080fd5b7f4e487b7100000000000000000000000000000000000000000000000000000000600052604160045260246000fd5b611b278261167e565b810181811067ffffffffffffffff82111715611b4657611b45611aef565b5b80604052505050565b6000611b59611581565b9050611b658282611b1e565b919050565b600067ffffffffffffffff821115611b8557611b84611aef565b5b611b8e8261167e565b9050602081019050919050565b82818337600083830152505050565b6000611bbd611bb884611b6a565b611b4f565b905082815260208101848484011115611bd957611bd8611aea565b5b611be4848285611b9b565b509392505050565b600082601f830112611c0157611c00611ae5565b5b8135611c11848260208601611baa565b91505092915050565b600060208284031215611c3057611c2f61158b565b5b600082013567ffffffffffffffff811115611c4e57611c4d611590565b5b611c5a84828501611bec565b91505092915050565b600080fd5b600080fd5b60008083601f840112611c8357611c82611ae5565b5b8235905067ffffffffffffffff811115611ca057611c9f611c63565b5b602083019150836001820283011115611cbc57611cbb611c68565b5b9250929050565b600080600060408486031215611cdc57611cdb61158b565b5b6000611cea868287016115b6565b935050602084013567ffffffffffffffff811115611d0b57611d0a611590565b5b611d1786828701611c6d565b92509250509250925092565b7f4e487b7100000000000000000000000000000000000000000000000000000000600052603260045260246000fd5b7f4e487b7100000000000000000000000000000000000000000000000000000000600052601160045260246000fd5b6000611d8c826116d7565b915063ffffffff8203611da257611da1611d52565b5b600182019050919050565b6000602082019050611dc260008301846116c8565b92915050565b60008115159050919050565b611ddd81611dc8565b8114611de857600080fd5b50565b600081519050611dfa81611dd4565b92915050565b600081519050611e0f8161159f565b92915050565b6000806000806000806000806000806101408b8d031215611e3957611e3861158b565b5b6000611e478d828e01611deb565b9a50506020611e588d828e01611deb565b9950506040611e698d828e01611e00565b9850506060611e7a8d828e01611e00565b9750506080611e8b8d828e01611e00565b96505060a0611e9c8d828e01611e00565b95505060c0611ead8d828e01611e00565b94505060e0611ebe8d828e01611e00565b935050610100611ed08d828e01611e00565b925050610120611ee28d828e01611e00565b9150509295989b9194979a5092959850565b7f4e487b7100000000000000000000000000000000000000000000000000000000600052602260045260246000fd5b60006002820490506001821680611f3b57607f821691505b602082108103611f4e57611f4d611ef4565b5b50919050565b6000611f5f82611595565b91507fffffffffffffffffffffffffffffffffffffffffffffffffffffffffffffffff8203611f9157611f90611d52565b5b600182019050919050565b600082905092915050565b60008190508160005260206000209050919050565b60006020601f8301049050919050565b600082821b905092915050565b6000600883026120097fffffffffffffffffffffffffffffffffffffffffffffffffffffffffffffffff82611fcc565b6120138683611fcc565b95508019841693508086168417925050509392505050565b6000819050919050565b600061205061204b61204684611595565b61202b565b611595565b9050919050565b6000819050919050565b61206a83612035565b61207e61207682612057565b848454611fd9565b825550505050565b600090565b612093612086565b61209e818484612061565b505050565b5b818110156120c2576120b760008261208b565b6001810190506120a4565b5050565b601f821115612107576120d881611fa7565b6120e184611fbc565b810160208510156120f0578190505b6121046120fc85611fbc565b8301826120a3565b50505b505050565b600082821c905092915050565b600061212a6000198460080261210c565b1980831691505092915050565b60006121438383612119565b9150826002028217905092915050565b61215d8383611f9c565b67ffffffffffffffff81111561217657612175611aef565b5b6121808254611f23565b61218b8282856120c6565b6000601f8311600181146121ba57600084156121a8578287013590505b6121b28582612137565b86555061221a565b601f1984166121c886611fa7565b60005b828110156121f0578489013582556001820191506020850194506020810190506121cb565b8683101561220d5784890135612209601f891682612119565b8355505b6001600288020188555050505b50505050505050565b600061222e826116f6565b915061ffff820361224257612241611d52565b5b600182019050919050565b7f4e487b7100000000000000000000000000000000000000000000000000000000600052601260045260246000fd5b600061228782611595565b915061229283611595565b9250826122a2576122a161224d565b5b828206905092915050565b60006122b882611595565b91506122c383611595565b92508282019050808211156122db576122da611d52565b5b92915050565b60006122ec82611595565b91506122f783611595565b9250826123075761230661224d565b5b828204905092915050565b600081905092915050565b7f6b69747479000000000000000000000000000000000000000000000000000000600082015250565b6000612353600583612312565b915061235e8261231d565b600582019050919050565b600061237482612346565b9150819050919050565b600061238982611638565b6123938185612312565b93506123a3818560208601611654565b80840191505092915050565b60006123bb828461237e565b915081905092915050565b60006123d182611595565b91506123dc83611595565b92508282039050818111156123f4576123f3611d52565b5b92915050565b61240382611638565b67ffffffffffffffff81111561241c5761241b611aef565b5b6124268254611f23565b6124318282856120c6565b600060209050601f8311600181146124645760008415612452578287015190505b61245c8582612137565b8655506124c4565b601f19841661247286611fa7565b60005b8281101561249a57848901518255600182019150602085019450602081019050612475565b868310156124b757848901516124b3601f891682612119565b8355505b6001600288020188555050505b505050505050565b60006060820190506124e160008301866116c8565b81810360208301526124f3818561168f565b905061250260408301846116c8565b949350505050565b6000819050919050565b61252561252082611595565b61250a565b82525050565b60008160601b9050919050565b60006125438261252b565b9050919050565b600061255582612538565b9050919050565b61256d6125688261179b565b61254a565b82525050565b600061257f8286612514565b60208201915061258f828561255c565b60148201915061259f8284612514565b60208201915081905094935050505056fea2646970667358221220b01897318668e3803f5c7e4c5ee85a65f92a0606ab7083cd08fd5cb74076a54d64736f6c63430008180033",
  "immutableReferences": {},
  "source": "pragma solidity >=0.4.22 <0.9.0;\n\nimport \"./ZombieAttack.sol\";\n\ncontract ZombieOwnership is ZombieAttack {\n\n}",
  "sourcePath": "/home/ethdev/Desktop/CryptoZombiesReact/truffle/contracts/ZombieOwnership.sol",
  "compiler": {
    "name": "solc",
    "version": "0.8.24+commit.e11b9ed9.Emscripten.clang"
  },
  "schemaVersion": "3.4.15",
  "updatedAt": "2024-01-29T23:38:02.226Z",
  "devdoc": {
    "errors": {
      "OwnableInvalidOwner(address)": [
        {
          "details": "The owner is not a valid owner account. (eg. `address(0)`)"
        }
      ],
      "OwnableUnauthorizedAccount(address)": [
        {
          "details": "The caller account is not authorized to perform an operation."
        }
      ]
    },
    "kind": "dev",
    "methods": {
      "owner()": {
        "details": "Returns the address of the current owner."
      },
      "renounceOwnership()": {
        "details": "Leaves the contract without owner. It will not be possible to call `onlyOwner` functions. Can only be called by the current owner. NOTE: Renouncing ownership will leave the contract without an owner, thereby disabling any functionality that is only available to the owner."
      },
      "transferOwnership(address)": {
        "details": "Transfers ownership of the contract to a new account (`newOwner`). Can only be called by the current owner."
      }
    },
    "version": 1
  },
  "userdoc": {
    "kind": "user",
    "methods": {},
    "version": 1
  }
}