{
  "contractName": "ZombieFeeding",
  "abi": [
    {
      "anonymous": false,
      "inputs": [
        {
          "indexed": false,
          "internalType": "uint256",
          "name": "zombieId",
          "type": "uint256"
        },
        {
          "indexed": false,
          "internalType": "string",
          "name": "name",
          "type": "string"
        },
        {
          "indexed": false,
          "internalType": "uint256",
          "name": "dna",
          "type": "uint256"
        }
      ],
      "name": "NewZombie",
      "type": "event"
    },
    {
      "inputs": [
        {
          "internalType": "string",
          "name": "_name",
          "type": "string"
        }
      ],
      "name": "createRandomZombie",
      "outputs": [],
      "stateMutability": "nonpayable",
      "type": "function"
    },
    {
      "inputs": [],
      "name": "read",
      "outputs": [
        {
          "components": [
            {
              "internalType": "string",
              "name": "name",
              "type": "string"
            },
            {
              "internalType": "uint256",
              "name": "dna",
              "type": "uint256"
            }
          ],
          "internalType": "struct ZombieFactory.Zombie[]",
          "name": "",
          "type": "tuple[]"
        }
      ],
      "stateMutability": "view",
      "type": "function",
      "constant": true
    },
    {
      "inputs": [
        {
          "internalType": "uint256",
          "name": "",
          "type": "uint256"
        }
      ],
      "name": "zombieToOwner",
      "outputs": [
        {
          "internalType": "address",
          "name": "",
          "type": "address"
        }
      ],
      "stateMutability": "view",
      "type": "function",
      "constant": true
    },
    {
      "inputs": [
        {
          "internalType": "uint256",
          "name": "",
          "type": "uint256"
        }
      ],
      "name": "zombies",
      "outputs": [
        {
          "internalType": "string",
          "name": "name",
          "type": "string"
        },
        {
          "internalType": "uint256",
          "name": "dna",
          "type": "uint256"
        }
      ],
      "stateMutability": "view",
      "type": "function",
      "constant": true
    },
    {
      "inputs": [
        {
          "internalType": "uint256",
          "name": "_zombieId",
          "type": "uint256"
        },
        {
          "internalType": "uint256",
          "name": "_targetDna",
          "type": "uint256"
        },
        {
          "internalType": "string",
          "name": "_species",
          "type": "string"
        }
      ],
      "name": "feedAndMultiply",
      "outputs": [],
      "stateMutability": "nonpayable",
      "type": "function"
    },
    {
      "inputs": [
        {
          "internalType": "uint256",
          "name": "_zombieId",
          "type": "uint256"
        },
        {
          "internalType": "uint256",
          "name": "_kittyId",
          "type": "uint256"
        }
      ],
      "name": "feedOnKitty",
      "outputs": [],
      "stateMutability": "nonpayable",
      "type": "function"
    }
  ],
  "bytecode": "0x60806040526010600055600054600a6200001a919062000276565b6001557306012c8cf97bead5deae237070f9587f8e7a266d600560006101000a81548173ffffffffffffffffffffffffffffffffffffffff021916908373ffffffffffffffffffffffffffffffffffffffff160217905550600560009054906101000a900473ffffffffffffffffffffffffffffffffffffffff16600660006101000a81548173ffffffffffffffffffffffffffffffffffffffff021916908373ffffffffffffffffffffffffffffffffffffffff160217905550348015620000e257600080fd5b50620002c7565b7f4e487b7100000000000000000000000000000000000000000000000000000000600052601160045260246000fd5b60008160011c9050919050565b6000808291508390505b600185111562000177578086048111156200014f576200014e620000e9565b5b60018516156200015f5780820291505b80810290506200016f8562000118565b94506200012f565b94509492505050565b60008262000192576001905062000265565b81620001a2576000905062000265565b8160018114620001bb5760028114620001c657620001fc565b600191505062000265565b60ff841115620001db57620001da620000e9565b5b8360020a915084821115620001f557620001f4620000e9565b5b5062000265565b5060208310610133831016604e8410600b8410161715620002365782820a90508381111562000230576200022f620000e9565b5b62000265565b62000245848484600162000125565b925090508184048111156200025f576200025e620000e9565b5b81810290505b9392505050565b6000819050919050565b600062000283826200026c565b915062000290836200026c565b9250620002bf7fffffffffffffffffffffffffffffffffffffffffffffffffffffffffffffffff848462000180565b905092915050565b61140180620002d76000396000f3fe608060405234801561001057600080fd5b50600436106100625760003560e01c806317a7f4cc146100675780632052465e14610083578063528b7b8f146100b457806357de26a4146100e45780636b0bfc80146101025780637bff0a011461011e575b600080fd5b610081600480360381019061007c9190610816565b61013a565b005b61009d60048036038101906100989190610856565b610258565b6040516100ab929190610922565b60405180910390f35b6100ce60048036038101906100c99190610856565b610314565b6040516100db9190610993565b60405180910390f35b6100ec610347565b6040516100f99190610b06565b60405180910390f35b61011c60048036038101906101179190610c5d565b610442565b005b61013860048036038101906101339190610ccc565b6105c1565b005b6000600660009054906101000a900473ffffffffffffffffffffffffffffffffffffffff1673ffffffffffffffffffffffffffffffffffffffff1663e98b7f4d836040518263ffffffff1660e01b81526004016101979190610d15565b61014060405180830381865afa1580156101b5573d6000803e3d6000fd5b505050506040513d601f19601f820116820180604052508101906101d99190610d7d565b9091929394959697985090919293949596975090919293949596509091929394955090919293945090919293509091925090915090508091505061025383826040518060400160405280600581526020017f6b69747479000000000000000000000000000000000000000000000000000000815250610442565b505050565b6002818154811061026857600080fd5b906000526020600020906002020160009150905080600001805461028b90610e8b565b80601f01602080910402602001604051908101604052809291908181526020018280546102b790610e8b565b80156103045780601f106102d957610100808354040283529160200191610304565b820191906000526020600020905b8154815290600101906020018083116102e757829003601f168201915b5050505050908060010154905082565b60036020528060005260406000206000915054906101000a900473ffffffffffffffffffffffffffffffffffffffff1681565b60606002805480602002602001604051908101604052809291908181526020016000905b82821015610439578382906000526020600020906002020160405180604001604052908160008201805461039e90610e8b565b80601f01602080910402602001604051908101604052809291908181526020018280546103ca90610e8b565b80156104175780601f106103ec57610100808354040283529160200191610417565b820191906000526020600020905b8154815290600101906020018083116103fa57829003601f168201915b505050505081526020016001820154815250508152602001906001019061036b565b50505050905090565b3373ffffffffffffffffffffffffffffffffffffffff166003600085815260200190815260200160002060009054906101000a900473ffffffffffffffffffffffffffffffffffffffff1673ffffffffffffffffffffffffffffffffffffffff16146104ad57600080fd5b6000600284815481106104c3576104c2610ebc565b5b90600052602060002090600202019050600154836104e19190610f1a565b9250600060028483600101546104f79190610f7a565b6105019190610fae565b905060405160200161051290611036565b6040516020818303038152906040528051906020012083604051602001610539919061107c565b604051602081830303815290604052805190602001200361057b5760636064826105639190610f1a565b8261056e9190611093565b6105789190610f7a565b90505b6105ba6040518060400160405280600681526020017f4e6f4e616d65000000000000000000000000000000000000000000000000000081525082610628565b5050505050565b6000600460003373ffffffffffffffffffffffffffffffffffffffff1673ffffffffffffffffffffffffffffffffffffffff168152602001908152602001600020541461060d57600080fd5b600061061882610787565b90506106248282610628565b5050565b60026040518060400160405280848152602001838152509080600181540180825580915050600190039060005260206000209060020201600090919091909150600082015181600001908161067d9190611273565b506020820151816001015550506000600160028054905061069e9190611093565b9050336003600083815260200190815260200160002060006101000a81548173ffffffffffffffffffffffffffffffffffffffff021916908373ffffffffffffffffffffffffffffffffffffffff160217905550600460003373ffffffffffffffffffffffffffffffffffffffff1673ffffffffffffffffffffffffffffffffffffffff168152602001908152602001600020600081548092919061074290611345565b91905055507f88f026aacbbecc90c18411df4b1185fd8d9be2470f1962f192bf84a27d0704b781848460405161077a9392919061138d565b60405180910390a1505050565b6000808260405160200161079b919061107c565b6040516020818303038152906040528051906020012060001c9050600154816107c49190610f1a565b915050919050565b6000604051905090565b600080fd5b600080fd5b6000819050919050565b6107f3816107e0565b81146107fe57600080fd5b50565b600081359050610810816107ea565b92915050565b6000806040838503121561082d5761082c6107d6565b5b600061083b85828601610801565b925050602061084c85828601610801565b9150509250929050565b60006020828403121561086c5761086b6107d6565b5b600061087a84828501610801565b91505092915050565b600081519050919050565b600082825260208201905092915050565b60005b838110156108bd5780820151818401526020810190506108a2565b60008484015250505050565b6000601f19601f8301169050919050565b60006108e582610883565b6108ef818561088e565b93506108ff81856020860161089f565b610908816108c9565b840191505092915050565b61091c816107e0565b82525050565b6000604082019050818103600083015261093c81856108da565b905061094b6020830184610913565b9392505050565b600073ffffffffffffffffffffffffffffffffffffffff82169050919050565b600061097d82610952565b9050919050565b61098d81610972565b82525050565b60006020820190506109a86000830184610984565b92915050565b600081519050919050565b600082825260208201905092915050565b6000819050602082019050919050565b600082825260208201905092915050565b60006109f682610883565b610a0081856109da565b9350610a1081856020860161089f565b610a19816108c9565b840191505092915050565b610a2d816107e0565b82525050565b60006040830160008301518482036000860152610a5082826109eb565b9150506020830151610a656020860182610a24565b508091505092915050565b6000610a7c8383610a33565b905092915050565b6000602082019050919050565b6000610a9c826109ae565b610aa681856109b9565b935083602082028501610ab8856109ca565b8060005b85811015610af45784840389528151610ad58582610a70565b9450610ae083610a84565b925060208a01995050600181019050610abc565b50829750879550505050505092915050565b60006020820190508181036000830152610b208184610a91565b905092915050565b600080fd5b600080fd5b7f4e487b7100000000000000000000000000000000000000000000000000000000600052604160045260246000fd5b610b6a826108c9565b810181811067ffffffffffffffff82111715610b8957610b88610b32565b5b80604052505050565b6000610b9c6107cc565b9050610ba88282610b61565b919050565b600067ffffffffffffffff821115610bc857610bc7610b32565b5b610bd1826108c9565b9050602081019050919050565b82818337600083830152505050565b6000610c00610bfb84610bad565b610b92565b905082815260208101848484011115610c1c57610c1b610b2d565b5b610c27848285610bde565b509392505050565b600082601f830112610c4457610c43610b28565b5b8135610c54848260208601610bed565b91505092915050565b600080600060608486031215610c7657610c756107d6565b5b6000610c8486828701610801565b9350506020610c9586828701610801565b925050604084013567ffffffffffffffff811115610cb657610cb56107db565b5b610cc286828701610c2f565b9150509250925092565b600060208284031215610ce257610ce16107d6565b5b600082013567ffffffffffffffff811115610d0057610cff6107db565b5b610d0c84828501610c2f565b91505092915050565b6000602082019050610d2a6000830184610913565b92915050565b60008115159050919050565b610d4581610d30565b8114610d5057600080fd5b50565b600081519050610d6281610d3c565b92915050565b600081519050610d77816107ea565b92915050565b6000806000806000806000806000806101408b8d031215610da157610da06107d6565b5b6000610daf8d828e01610d53565b9a50506020610dc08d828e01610d53565b9950506040610dd18d828e01610d68565b9850506060610de28d828e01610d68565b9750506080610df38d828e01610d68565b96505060a0610e048d828e01610d68565b95505060c0610e158d828e01610d68565b94505060e0610e268d828e01610d68565b935050610100610e388d828e01610d68565b925050610120610e4a8d828e01610d68565b9150509295989b9194979a5092959850565b7f4e487b7100000000000000000000000000000000000000000000000000000000600052602260045260246000fd5b60006002820490506001821680610ea357607f821691505b602082108103610eb657610eb5610e5c565b5b50919050565b7f4e487b7100000000000000000000000000000000000000000000000000000000600052603260045260246000fd5b7f4e487b7100000000000000000000000000000000000000000000000000000000600052601260045260246000fd5b6000610f25826107e0565b9150610f30836107e0565b925082610f4057610f3f610eeb565b5b828206905092915050565b7f4e487b7100000000000000000000000000000000000000000000000000000000600052601160045260246000fd5b6000610f85826107e0565b9150610f90836107e0565b9250828201905080821115610fa857610fa7610f4b565b5b92915050565b6000610fb9826107e0565b9150610fc4836107e0565b925082610fd457610fd3610eeb565b5b828204905092915050565b600081905092915050565b7f6b69747479000000000000000000000000000000000000000000000000000000600082015250565b6000611020600583610fdf565b915061102b82610fea565b600582019050919050565b600061104182611013565b9150819050919050565b600061105682610883565b6110608185610fdf565b935061107081856020860161089f565b80840191505092915050565b6000611088828461104b565b915081905092915050565b600061109e826107e0565b91506110a9836107e0565b92508282039050818111156110c1576110c0610f4b565b5b92915050565b60008190508160005260206000209050919050565b60006020601f8301049050919050565b600082821b905092915050565b6000600883026111297fffffffffffffffffffffffffffffffffffffffffffffffffffffffffffffffff826110ec565b61113386836110ec565b95508019841693508086168417925050509392505050565b6000819050919050565b600061117061116b611166846107e0565b61114b565b6107e0565b9050919050565b6000819050919050565b61118a83611155565b61119e61119682611177565b8484546110f9565b825550505050565b600090565b6111b36111a6565b6111be818484611181565b505050565b5b818110156111e2576111d76000826111ab565b6001810190506111c4565b5050565b601f821115611227576111f8816110c7565b611201846110dc565b81016020851015611210578190505b61122461121c856110dc565b8301826111c3565b50505b505050565b600082821c905092915050565b600061124a6000198460080261122c565b1980831691505092915050565b60006112638383611239565b9150826002028217905092915050565b61127c82610883565b67ffffffffffffffff81111561129557611294610b32565b5b61129f8254610e8b565b6112aa8282856111e6565b600060209050601f8311600181146112dd57600084156112cb578287015190505b6112d58582611257565b86555061133d565b601f1984166112eb866110c7565b60005b82811015611313578489015182556001820191506020850194506020810190506112ee565b86831015611330578489015161132c601f891682611239565b8355505b6001600288020188555050505b505050505050565b6000611350826107e0565b91507fffffffffffffffffffffffffffffffffffffffffffffffffffffffffffffffff820361138257611381610f4b565b5b600182019050919050565b60006060820190506113a26000830186610913565b81810360208301526113b481856108da565b90506113c36040830184610913565b94935050505056fea264697066735822122052a7488846e8c3deacbef8914dc5c09adaa17cebecc633ffb286a92ecf53f80e64736f6c63430008120033",
  "immutableReferences": {},
  "source": "pragma solidity >=0.4.22 <0.9.0;\n\nimport \"./ZombieFactory.sol\";\n\ninterface KittyInterface {\n    function getKitty(uint256 _id) external view returns (\n        bool isGestating,\n        bool isReady,\n        uint256 cooldownIndex,\n        uint256 nextActionAt,\n        uint256 siringWithId,\n        uint256 birthTime,\n        uint256 matronId,\n        uint256 sireId,\n        uint256 generation,\n        uint256 genes\n    );\n}\n\ncontract ZombieFeeding is ZombieFactory {\n    address ckAddress = 0x06012c8cf97BEaD5deAe237070F9587f8E7A266d;\n    KittyInterface kittyContract = KittyInterface(ckAddress);\n\n    function feedAndMultiply(uint _zombieId, uint _targetDna, string memory _species) public {\n        require(zombieToOwner[_zombieId] == msg.sender);\n        Zombie storage myZombie = zombies[_zombieId];\n\n        _targetDna = _targetDna % dnaModulus;\n        uint newDna = (myZombie.dna + _targetDna) / 2;\n        if (keccak256(abi.encodePacked(_species)) == keccak256(abi.encodePacked(\"kitty\"))) {\n            newDna = newDna - newDna % 100 + 99;\n        }\n        _createZombie(\"NoName\", newDna);\n    }\n\n    function feedOnKitty(uint _zombieId, uint _kittyId) public {\n        uint kittyDna;\n        (,,,,,,,,,kittyDna) = kittyContract.getKitty(_kittyId);\n        feedAndMultiply(_zombieId, kittyDna, \"kitty\");\n  }\n}",
  "sourcePath": "/home/ethdev/Desktop/CryptoZombiesReact/truffle/contracts/ZombieFeeding.sol",
  "compiler": {
    "name": "solc",
    "version": "0.8.18+commit.87f61d96.Emscripten.clang"
  },
  "schemaVersion": "3.4.15",
  "updatedAt": "2024-01-23T19:00:20.344Z",
  "networkType": "ethereum",
  "devdoc": {
    "kind": "dev",
    "methods": {},
    "version": 1
  },
  "userdoc": {
    "kind": "user",
    "methods": {},
    "version": 1
  }
}